{
  "address": "0x8A40a42fce67582b45B6D19d35544341c6BC7714",
  "abi": [
    {
      "inputs": [
        {
          "internalType": "address",
          "name": "ccipRouterAddress",
          "type": "address"
        },
        {
          "internalType": "address",
          "name": "linkTokenAddress",
          "type": "address"
        },
        {
          "internalType": "uint64",
          "name": "currentChainSelector",
          "type": "uint64"
        }
      ],
      "stateMutability": "nonpayable",
      "type": "constructor"
    },
    {
      "inputs": [
        {
          "internalType": "uint64",
          "name": "chainSelector",
          "type": "uint64"
        }
      ],
      "name": "ChainNotEnabled",
      "type": "error"
    },
    {
      "inputs": [
        {
          "internalType": "address",
          "name": "owner",
          "type": "address"
        },
        {
          "internalType": "address",
          "name": "target",
          "type": "address"
        },
        {
          "internalType": "uint256",
          "name": "value",
          "type": "uint256"
        }
      ],
      "name": "FailedToWithdrawEth",
      "type": "error"
    },
    {
      "inputs": [
        {
          "internalType": "address",
          "name": "router",
          "type": "address"
        }
      ],
      "name": "InvalidRouter",
      "type": "error"
    },
    {
      "inputs": [
        {
          "internalType": "uint256",
          "name": "currentBalance",
          "type": "uint256"
        },
        {
          "internalType": "uint256",
          "name": "calculatedFees",
          "type": "uint256"
        }
      ],
      "name": "NotEnoughBalanceForFees",
      "type": "error"
    },
    {
      "inputs": [],
      "name": "NothingToWithdraw",
      "type": "error"
    },
    {
      "inputs": [],
      "name": "OnlyOnArbitrumSepolia",
      "type": "error"
    },
    {
      "inputs": [
        {
          "internalType": "uint64",
          "name": "chainSelector",
          "type": "uint64"
        }
      ],
      "name": "OperationNotAllowedOnCurrentChain",
      "type": "error"
    },
    {
      "inputs": [
        {
          "internalType": "address",
          "name": "sender",
          "type": "address"
        }
      ],
      "name": "SenderNotEnabled",
      "type": "error"
    },
    {
      "anonymous": false,
      "inputs": [
        {
          "indexed": true,
          "internalType": "address",
          "name": "owner",
          "type": "address"
        },
        {
          "indexed": true,
          "internalType": "address",
          "name": "approved",
          "type": "address"
        },
        {
          "indexed": true,
          "internalType": "uint256",
          "name": "tokenId",
          "type": "uint256"
        }
      ],
      "name": "Approval",
      "type": "event"
    },
    {
      "anonymous": false,
      "inputs": [
        {
          "indexed": true,
          "internalType": "address",
          "name": "owner",
          "type": "address"
        },
        {
          "indexed": true,
          "internalType": "address",
          "name": "operator",
          "type": "address"
        },
        {
          "indexed": false,
          "internalType": "bool",
          "name": "approved",
          "type": "bool"
        }
      ],
      "name": "ApprovalForAll",
      "type": "event"
    },
    {
      "anonymous": false,
      "inputs": [
        {
          "indexed": false,
          "internalType": "uint256",
          "name": "_fromTokenId",
          "type": "uint256"
        },
        {
          "indexed": false,
          "internalType": "uint256",
          "name": "_toTokenId",
          "type": "uint256"
        }
      ],
      "name": "BatchMetadataUpdate",
      "type": "event"
    },
    {
      "anonymous": false,
      "inputs": [
        {
          "indexed": false,
          "internalType": "uint64",
          "name": "chainSelector",
          "type": "uint64"
        }
      ],
      "name": "ChainDisabled",
      "type": "event"
    },
    {
      "anonymous": false,
      "inputs": [
        {
          "indexed": false,
          "internalType": "uint64",
          "name": "chainSelector",
          "type": "uint64"
        },
        {
          "indexed": false,
          "internalType": "address",
          "name": "xNftAddress",
          "type": "address"
        },
        {
          "indexed": false,
          "internalType": "bytes",
          "name": "ccipExtraArgs",
          "type": "bytes"
        }
      ],
      "name": "ChainEnabled",
      "type": "event"
    },
    {
      "anonymous": false,
      "inputs": [
        {
          "indexed": false,
          "internalType": "address",
          "name": "from",
          "type": "address"
        },
        {
          "indexed": false,
          "internalType": "address",
          "name": "to",
          "type": "address"
        },
        {
          "indexed": false,
          "internalType": "uint256",
          "name": "tokenId",
          "type": "uint256"
        },
        {
          "indexed": false,
          "internalType": "uint64",
          "name": "sourceChainSelector",
          "type": "uint64"
        },
        {
          "indexed": false,
          "internalType": "uint64",
          "name": "destinationChainSelector",
          "type": "uint64"
        }
      ],
      "name": "CrossChainReceived",
      "type": "event"
    },
    {
      "anonymous": false,
      "inputs": [
        {
          "indexed": false,
          "internalType": "address",
          "name": "from",
          "type": "address"
        },
        {
          "indexed": false,
          "internalType": "address",
          "name": "to",
          "type": "address"
        },
        {
          "indexed": false,
          "internalType": "uint256",
          "name": "tokenId",
          "type": "uint256"
        },
        {
          "indexed": false,
          "internalType": "uint64",
          "name": "sourceChainSelector",
          "type": "uint64"
        },
        {
          "indexed": false,
          "internalType": "uint64",
          "name": "destinationChainSelector",
          "type": "uint64"
        }
      ],
      "name": "CrossChainSent",
      "type": "event"
    },
    {
      "anonymous": false,
      "inputs": [
        {
          "indexed": false,
          "internalType": "uint256",
          "name": "_tokenId",
          "type": "uint256"
        }
      ],
      "name": "MetadataUpdate",
      "type": "event"
    },
    {
      "anonymous": false,
      "inputs": [
        {
          "indexed": true,
          "internalType": "address",
          "name": "from",
          "type": "address"
        },
        {
          "indexed": true,
          "internalType": "address",
          "name": "to",
          "type": "address"
        }
      ],
      "name": "OwnershipTransferRequested",
      "type": "event"
    },
    {
      "anonymous": false,
      "inputs": [
        {
          "indexed": true,
          "internalType": "address",
          "name": "from",
          "type": "address"
        },
        {
          "indexed": true,
          "internalType": "address",
          "name": "to",
          "type": "address"
        }
      ],
      "name": "OwnershipTransferred",
      "type": "event"
    },
    {
      "anonymous": false,
      "inputs": [
        {
          "indexed": true,
          "internalType": "address",
          "name": "from",
          "type": "address"
        },
        {
          "indexed": true,
          "internalType": "address",
          "name": "to",
          "type": "address"
        },
        {
          "indexed": true,
          "internalType": "uint256",
          "name": "tokenId",
          "type": "uint256"
        }
      ],
      "name": "Transfer",
      "type": "event"
    },
    {
      "inputs": [],
      "name": "acceptOwnership",
      "outputs": [],
      "stateMutability": "nonpayable",
      "type": "function"
    },
    {
      "inputs": [
        {
          "internalType": "address",
          "name": "to",
          "type": "address"
        },
        {
          "internalType": "uint256",
          "name": "tokenId",
          "type": "uint256"
        }
      ],
      "name": "approve",
      "outputs": [],
      "stateMutability": "nonpayable",
      "type": "function"
    },
    {
      "inputs": [
        {
          "internalType": "address",
          "name": "owner",
          "type": "address"
        }
      ],
      "name": "balanceOf",
      "outputs": [
        {
          "internalType": "uint256",
          "name": "",
          "type": "uint256"
        }
      ],
      "stateMutability": "view",
      "type": "function"
    },
    {
      "inputs": [
        {
          "internalType": "uint256",
          "name": "tokenId",
          "type": "uint256"
        }
      ],
      "name": "burn",
      "outputs": [],
      "stateMutability": "nonpayable",
      "type": "function"
    },
    {
      "inputs": [
        {
          "components": [
            {
              "internalType": "bytes32",
              "name": "messageId",
              "type": "bytes32"
            },
            {
              "internalType": "uint64",
              "name": "sourceChainSelector",
              "type": "uint64"
            },
            {
              "internalType": "bytes",
              "name": "sender",
              "type": "bytes"
            },
            {
              "internalType": "bytes",
              "name": "data",
              "type": "bytes"
            },
            {
              "components": [
                {
                  "internalType": "address",
                  "name": "token",
                  "type": "address"
                },
                {
                  "internalType": "uint256",
                  "name": "amount",
                  "type": "uint256"
                }
              ],
              "internalType": "struct Client.EVMTokenAmount[]",
              "name": "destTokenAmounts",
              "type": "tuple[]"
            }
          ],
          "internalType": "struct Client.Any2EVMMessage",
          "name": "message",
          "type": "tuple"
        }
      ],
      "name": "ccipReceive",
      "outputs": [],
      "stateMutability": "nonpayable",
      "type": "function"
    },
    {
      "inputs": [
        {
          "internalType": "address",
          "name": "from",
          "type": "address"
        },
        {
          "internalType": "address",
          "name": "to",
          "type": "address"
        },
        {
          "internalType": "uint256",
          "name": "tokenId",
          "type": "uint256"
        },
        {
          "internalType": "uint64",
          "name": "destinationChainSelector",
          "type": "uint64"
        },
        {
          "internalType": "enum XNFT.PayFeesIn",
          "name": "payFeesIn",
          "type": "uint8"
        }
      ],
      "name": "crossChainTransferFrom",
      "outputs": [
        {
          "internalType": "bytes32",
          "name": "messageId",
          "type": "bytes32"
        }
      ],
      "stateMutability": "nonpayable",
      "type": "function"
    },
    {
      "inputs": [
        {
          "internalType": "uint64",
          "name": "chainSelector",
          "type": "uint64"
        }
      ],
      "name": "disableChain",
      "outputs": [],
      "stateMutability": "nonpayable",
      "type": "function"
    },
    {
      "inputs": [
        {
          "internalType": "uint64",
          "name": "chainSelector",
          "type": "uint64"
        },
        {
          "internalType": "address",
          "name": "xNftAddress",
          "type": "address"
        },
        {
          "internalType": "bytes",
          "name": "ccipExtraArgs",
          "type": "bytes"
        }
      ],
      "name": "enableChain",
      "outputs": [],
      "stateMutability": "nonpayable",
      "type": "function"
    },
    {
      "inputs": [
        {
          "internalType": "uint256",
          "name": "tokenId",
          "type": "uint256"
        }
      ],
      "name": "getApproved",
      "outputs": [
        {
          "internalType": "address",
          "name": "",
          "type": "address"
        }
      ],
      "stateMutability": "view",
      "type": "function"
    },
    {
      "inputs": [],
      "name": "getCCIPRouter",
      "outputs": [
        {
          "internalType": "address",
          "name": "",
          "type": "address"
        }
      ],
      "stateMutability": "view",
      "type": "function"
    },
    {
      "inputs": [
        {
          "internalType": "address",
          "name": "owner",
          "type": "address"
        },
        {
          "internalType": "address",
          "name": "operator",
          "type": "address"
        }
      ],
      "name": "isApprovedForAll",
      "outputs": [
        {
          "internalType": "bool",
          "name": "",
          "type": "bool"
        }
      ],
      "stateMutability": "view",
      "type": "function"
    },
    {
      "inputs": [],
      "name": "mint",
      "outputs": [],
      "stateMutability": "nonpayable",
      "type": "function"
    },
    {
      "inputs": [],
      "name": "name",
      "outputs": [
        {
          "internalType": "string",
          "name": "",
          "type": "string"
        }
      ],
      "stateMutability": "view",
      "type": "function"
    },
    {
      "inputs": [],
      "name": "owner",
      "outputs": [
        {
          "internalType": "address",
          "name": "",
          "type": "address"
        }
      ],
      "stateMutability": "view",
      "type": "function"
    },
    {
      "inputs": [
        {
          "internalType": "uint256",
          "name": "tokenId",
          "type": "uint256"
        }
      ],
      "name": "ownerOf",
      "outputs": [
        {
          "internalType": "address",
          "name": "",
          "type": "address"
        }
      ],
      "stateMutability": "view",
      "type": "function"
    },
    {
      "inputs": [
        {
          "internalType": "uint64",
          "name": "destChainSelector",
          "type": "uint64"
        }
      ],
      "name": "s_chains",
      "outputs": [
        {
          "internalType": "address",
          "name": "xNftAddress",
          "type": "address"
        },
        {
          "internalType": "bytes",
          "name": "ccipExtraArgsBytes",
          "type": "bytes"
        }
      ],
      "stateMutability": "view",
      "type": "function"
    },
    {
      "inputs": [
        {
          "internalType": "address",
          "name": "from",
          "type": "address"
        },
        {
          "internalType": "address",
          "name": "to",
          "type": "address"
        },
        {
          "internalType": "uint256",
          "name": "tokenId",
          "type": "uint256"
        }
      ],
      "name": "safeTransferFrom",
      "outputs": [],
      "stateMutability": "nonpayable",
      "type": "function"
    },
    {
      "inputs": [
        {
          "internalType": "address",
          "name": "from",
          "type": "address"
        },
        {
          "internalType": "address",
          "name": "to",
          "type": "address"
        },
        {
          "internalType": "uint256",
          "name": "tokenId",
          "type": "uint256"
        },
        {
          "internalType": "bytes",
          "name": "data",
          "type": "bytes"
        }
      ],
      "name": "safeTransferFrom",
      "outputs": [],
      "stateMutability": "nonpayable",
      "type": "function"
    },
    {
      "inputs": [
        {
          "internalType": "address",
          "name": "operator",
          "type": "address"
        },
        {
          "internalType": "bool",
          "name": "approved",
          "type": "bool"
        }
      ],
      "name": "setApprovalForAll",
      "outputs": [],
      "stateMutability": "nonpayable",
      "type": "function"
    },
    {
      "inputs": [
        {
          "internalType": "bytes4",
          "name": "interfaceId",
          "type": "bytes4"
        }
      ],
      "name": "supportsInterface",
      "outputs": [
        {
          "internalType": "bool",
          "name": "",
          "type": "bool"
        }
      ],
      "stateMutability": "view",
      "type": "function"
    },
    {
      "inputs": [],
      "name": "symbol",
      "outputs": [
        {
          "internalType": "string",
          "name": "",
          "type": "string"
        }
      ],
      "stateMutability": "view",
      "type": "function"
    },
    {
      "inputs": [
        {
          "internalType": "uint256",
          "name": "tokenId",
          "type": "uint256"
        }
      ],
      "name": "tokenURI",
      "outputs": [
        {
          "internalType": "string",
          "name": "",
          "type": "string"
        }
      ],
      "stateMutability": "view",
      "type": "function"
    },
    {
      "inputs": [
        {
          "internalType": "address",
          "name": "from",
          "type": "address"
        },
        {
          "internalType": "address",
          "name": "to",
          "type": "address"
        },
        {
          "internalType": "uint256",
          "name": "tokenId",
          "type": "uint256"
        }
      ],
      "name": "transferFrom",
      "outputs": [],
      "stateMutability": "nonpayable",
      "type": "function"
    },
    {
      "inputs": [
        {
          "internalType": "address",
          "name": "to",
          "type": "address"
        }
      ],
      "name": "transferOwnership",
      "outputs": [],
      "stateMutability": "nonpayable",
      "type": "function"
    },
    {
      "inputs": [
        {
          "internalType": "address",
          "name": "_beneficiary",
          "type": "address"
        }
      ],
      "name": "withdraw",
      "outputs": [],
      "stateMutability": "nonpayable",
      "type": "function"
    },
    {
      "inputs": [
        {
          "internalType": "address",
          "name": "_beneficiary",
          "type": "address"
        },
        {
          "internalType": "address",
          "name": "_token",
          "type": "address"
        }
      ],
      "name": "withdrawToken",
      "outputs": [],
      "stateMutability": "nonpayable",
      "type": "function"
    }
  ],
  "transactionHash": "0xf1ce18cbddd068d51b790105f906d70a4f00ec3da308f8e91c837a26343106a7",
  "args": [
    "0x0bf3de8c5d3e8a2b34d2beeb17abfcebaf363a59",
    "0x779877A7B0D9E8603169DdbD7836e478b4624789",
    "16015286601757825753"
  ],
  "numDeployments": 3,
  "solcInputHash": "3fef68b5a6c7db2abcc9c7e320ab4f6a",
  "bytecode": "0x6101e0604052605e61016081815260e09182919062003a316101803981526020016040518060a0016040528060618152602001620039706061913981526020016040518060800160405280605e815260200162003912605e91398152602001604051806080016040528060608152602001620039d16060913990526200008a90600a906004620002bb565b503480156200009857600080fd5b5060405162003a8f38038062003a8f833981016040819052620000bb91620003af565b338060006040518060400160405280600f81526020016e10dc9bdcdcc810da185a5b88139195608a1b815250604051806040016040528060048152602001631613919560e21b8152508160009081620001159190620004ae565b506001620001248282620004ae565b50506001600755506001600160a01b038216620001885760405162461bcd60e51b815260206004820152601860248201527f43616e6e6f7420736574206f776e657220746f207a65726f000000000000000060448201526064015b60405180910390fd5b600880546001600160a01b0319166001600160a01b0384811691909117909155811615620001bb57620001bb816200020f565b5050506001600160a01b038316620001ea576040516335fdcccd60e21b8152600060048201526024016200017f565b6001600160a01b03928316608052911660a0526001600160401b031660c0526200057a565b336001600160a01b03821603620002695760405162461bcd60e51b815260206004820152601760248201527f43616e6e6f74207472616e7366657220746f2073656c6600000000000000000060448201526064016200017f565b600980546001600160a01b0319166001600160a01b03838116918217909255600854604051919216907fed8889f560326eb138920d842192f0eb3dd22b4f139c87a2c57538e05bae127890600090a350565b82805482825590600052602060002090810192821562000306579160200282015b82811115620003065782518290620002f59082620004ae565b5091602001919060010190620002dc565b506200031492915062000318565b5090565b80821115620003145760006200032f828262000339565b5060010162000318565b50805462000347906200041f565b6000825580601f1062000358575050565b601f0160209004906000526020600020908101906200037891906200037b565b50565b5b808211156200031457600081556001016200037c565b80516001600160a01b0381168114620003aa57600080fd5b919050565b600080600060608486031215620003c557600080fd5b620003d08462000392565b9250620003e06020850162000392565b60408501519092506001600160401b0381168114620003fe57600080fd5b809150509250925092565b634e487b7160e01b600052604160045260246000fd5b600181811c908216806200043457607f821691505b6020821081036200045557634e487b7160e01b600052602260045260246000fd5b50919050565b601f821115620004a957600081815260208120601f850160051c81016020861015620004845750805b601f850160051c820191505b81811015620004a55782815560010162000490565b5050505b505050565b81516001600160401b03811115620004ca57620004ca62000409565b620004e281620004db84546200041f565b846200045b565b602080601f8311600181146200051a5760008415620005015750858301515b600019600386901b1c1916600185901b178555620004a5565b600085815260208120601f198616915b828110156200054b578886015182559484019460019091019084016200052a565b50858210156200056a5787850151600019600388901b60f8161c191681555b5050505050600190811b01905550565b60805160a05160c05161331b620005f76000396000818161064501528181610997015281816113ec01526116ed015260008181610ed1015281816110780152818161110701526111fd0152600081816102bf01528181610fbb015281816111ce0152818161128201528181611344015261151d015261331b6000f3fe608060405234801561001057600080fd5b50600436106101ae5760003560e01c80635dc5ebdb116100ee5780638da5cb5b11610097578063b88d4fde11610071578063b88d4fde14610392578063c87b56dd146103a5578063e985e9c5146103b8578063f2fde38b146103f457600080fd5b80638da5cb5b1461036657806395d89b4114610377578063a22cb4651461037f57600080fd5b806377c1506d116100c857806377c1506d1461033857806379ba50971461034b57806385572ffb1461035357600080fd5b80635dc5ebdb146102e35780636352211e1461030457806370a082311461031757600080fd5b806323b872dd1161015b57806342842e0e1161013557806342842e0e1461028457806342966c681461029757806351cff8d9146102aa578063588cbd0e146102bd57600080fd5b806323b872dd1461024b5780633aeac4e11461025e57806341eade461461027157600080fd5b8063095ea7b31161018c578063095ea7b31461021b5780630ce639c4146102305780631249c58b1461024357600080fd5b806301ffc9a7146101b357806306fdde03146101db578063081812fc146101f0575b600080fd5b6101c66101c1366004612a5c565b610407565b60405190151581526020015b60405180910390f35b6101e361044b565b6040516101d29190612ac9565b6102036101fe366004612adc565b6104dd565b6040516001600160a01b0390911681526020016101d2565b61022e610229366004612b0a565b610504565b005b61022e61023e366004612bff565b61063a565b61022e610748565b61022e610259366004612c5f565b61086a565b61022e61026c366004612ca0565b6108e2565b61022e61027f366004612cd9565b61098c565b61022e610292366004612c5f565b610a6e565b61022e6102a5366004612adc565b610a89565b61022e6102b8366004612cf4565b610b00565b7f0000000000000000000000000000000000000000000000000000000000000000610203565b6102f66102f1366004612cd9565b610bd0565b6040516101d2929190612d11565b610203610312366004612adc565b610c7f565b61032a610325366004612cf4565b610ce4565b6040519081526020016101d2565b61032a610346366004612d33565b610d7e565b61022e61145d565b61022e610361366004612d9d565b611512565b6008546001600160a01b0316610203565b6101e3611751565b61022e61038d366004612de6565b611760565b61022e6103a0366004612e14565b61176b565b6101e36103b3366004612adc565b6117e9565b6101c66103c6366004612ca0565b6001600160a01b03918216600090815260056020908152604080832093909416825291909152205460ff1690565b61022e610402366004612cf4565b6117f4565b60006001600160e01b031982167f85572ffb000000000000000000000000000000000000000000000000000000001480610445575061044582611805565b92915050565b60606000805461045a90612e80565b80601f016020809104026020016040519081016040528092919081815260200182805461048690612e80565b80156104d35780601f106104a8576101008083540402835291602001916104d3565b820191906000526020600020905b8154815290600101906020018083116104b657829003601f168201915b5050505050905090565b60006104e882611843565b506000908152600460205260409020546001600160a01b031690565b600061050f82610c7f565b9050806001600160a01b0316836001600160a01b03160361059d5760405162461bcd60e51b815260206004820152602160248201527f4552433732313a20617070726f76616c20746f2063757272656e74206f776e6560448201527f720000000000000000000000000000000000000000000000000000000000000060648201526084015b60405180910390fd5b336001600160a01b03821614806105b957506105b981336103c6565b61062b5760405162461bcd60e51b815260206004820152603d60248201527f4552433732313a20617070726f76652063616c6c6572206973206e6f7420746f60448201527f6b656e206f776e6572206f7220617070726f76656420666f7220616c6c0000006064820152608401610594565b61063583836118a7565b505050565b610642611915565b827f000000000000000000000000000000000000000000000000000000000000000067ffffffffffffffff168167ffffffffffffffff16036106a3576040516340d8e3a160e01b815267ffffffffffffffff82166004820152602401610594565b6040805180820182526001600160a01b038581168252602080830186815267ffffffffffffffff89166000908152600c909252939020825181546001600160a01b0319169216919091178155915190919060018201906107039082612f08565b509050507f59cc0b49d3359ac35e3872e99199469b6a1025c9a945cd9b6a411bffe337272d84848460405161073a93929190612fc8565b60405180910390a150505050565b62066eee4614610784576040517fe50e904700000000000000000000000000000000000000000000000000000000815260040160405180910390fd5b600b80546000918261079583612ffa565b90915550600a80549192506000916107ad9084613021565b815481106107bd576107bd613043565b9060005260206000200180546107d290612e80565b80601f01602080910402602001604051908101604052809291908181526020018280546107fe90612e80565b801561084b5780601f106108205761010080835404028352916020019161084b565b820191906000526020600020905b81548152906001019060200180831161082e57829003601f168201915b5050505050905061085c3383611971565b610866828261198b565b5050565b610875335b82611a5e565b6108d75760405162461bcd60e51b815260206004820152602d60248201527f4552433732313a2063616c6c6572206973206e6f7420746f6b656e206f776e6560448201526c1c881bdc88185c1c1c9bdd9959609a1b6064820152608401610594565b610635838383611add565b6108ea611915565b6040516370a0823160e01b81523060048201526000906001600160a01b038316906370a0823190602401602060405180830381865afa158015610931573d6000803e3d6000fd5b505050506040513d601f19601f820116820180604052508101906109559190613059565b90508060000361097857604051630686827b60e51b815260040160405180910390fd5b6106356001600160a01b0383168483611cd6565b610994611915565b807f000000000000000000000000000000000000000000000000000000000000000067ffffffffffffffff168167ffffffffffffffff16036109f5576040516340d8e3a160e01b815267ffffffffffffffff82166004820152602401610594565b67ffffffffffffffff82166000908152600c6020526040812080546001600160a01b031916815590610a2a60018301826129f8565b505060405167ffffffffffffffff831681527f67e02000179a6045f4db8fb1b09f01e170b0347e0b698fc5112ce4d798ef19f6906020015b60405180910390a15050565b6106358383836040518060200160405280600081525061176b565b610a923361086f565b610af45760405162461bcd60e51b815260206004820152602d60248201527f4552433732313a2063616c6c6572206973206e6f7420746f6b656e206f776e6560448201526c1c881bdc88185c1c1c9bdd9959609a1b6064820152608401610594565b610afd81611d56565b50565b610b08611915565b476000819003610b2b57604051630686827b60e51b815260040160405180910390fd5b6000826001600160a01b03168260405160006040518083038185875af1925050503d8060008114610b78576040519150601f19603f3d011682016040523d82523d6000602084013e610b7d565b606091505b5050905080610635576040517f9d11f5630000000000000000000000000000000000000000000000000000000081523360048201526001600160a01b038416602482015260448101839052606401610594565b600c60205260009081526040902080546001820180546001600160a01b039092169291610bfc90612e80565b80601f0160208091040260200160405190810160405280929190818152602001828054610c2890612e80565b8015610c755780601f10610c4a57610100808354040283529160200191610c75565b820191906000526020600020905b815481529060010190602001808311610c5857829003601f168201915b5050505050905082565b6000818152600260205260408120546001600160a01b0316806104455760405162461bcd60e51b815260206004820152601860248201527f4552433732313a20696e76616c696420746f6b656e20494400000000000000006044820152606401610594565b60006001600160a01b038216610d625760405162461bcd60e51b815260206004820152602960248201527f4552433732313a2061646472657373207a65726f206973206e6f74206120766160448201527f6c6964206f776e657200000000000000000000000000000000000000000000006064820152608401610594565b506001600160a01b031660009081526003602052604090205490565b6000610d88611d5f565b67ffffffffffffffff83166000908152600c602052604090205483906001600160a01b0316610dd657604051630e19fdf760e11b815267ffffffffffffffff82166004820152602401610594565b6000610de1866117e9565b9050610dec86611d56565b6040805160a08101825267ffffffffffffffff87166000908152600c602052918220546001600160a01b031660c08201528060e0810160405160208183030381529060405281526020018a8a8a86604051602001610e4d9493929190613072565b60408051601f1981840301815291905281526020016000604051908082528060200260200182016040528015610ea957816020015b6040805180820190915260008082526020820152815260200190600190039081610e825790505b5081526020016001876001811115610ec357610ec36130ae565b14610ecf576000610ef1565b7f00000000000000000000000000000000000000000000000000000000000000005b6001600160a01b03168152602001600c60008967ffffffffffffffff1667ffffffffffffffff1681526020019081526020016000206001018054610f3490612e80565b80601f0160208091040260200160405190810160405280929190818152602001828054610f6090612e80565b8015610fad5780601f10610f8257610100808354040283529160200191610fad565b820191906000526020600020905b815481529060010190602001808311610f9057829003601f168201915b5050505050815250905060007f00000000000000000000000000000000000000000000000000000000000000006001600160a01b03166320487ded88846040518363ffffffff1660e01b81526004016110079291906130c4565b602060405180830381865afa158015611024573d6000803e3d6000fd5b505050506040513d601f19601f820116820180604052508101906110489190613059565b9050600186600181111561105e5761105e6130ae565b03611303576040516370a0823160e01b81523060048201527f00000000000000000000000000000000000000000000000000000000000000006001600160a01b0316906370a0823190602401602060405180830381865afa1580156110c7573d6000803e3d6000fd5b505050506040513d601f19601f820116820180604052508101906110eb9190613059565b81111561119e576040516370a0823160e01b81523060048201527f00000000000000000000000000000000000000000000000000000000000000006001600160a01b0316906370a0823190602401602060405180830381865afa158015611156573d6000803e3d6000fd5b505050506040513d601f19601f8201168201806040525081019061117a9190613059565b6040516328fdcaa160e01b8152600481019190915260248101829052604401610594565b6040517f095ea7b30000000000000000000000000000000000000000000000000000000081526001600160a01b037f000000000000000000000000000000000000000000000000000000000000000081166004830152602482018390527f0000000000000000000000000000000000000000000000000000000000000000169063095ea7b3906044016020604051808303816000875af1158015611246573d6000803e3d6000fd5b505050506040513d601f19601f8201168201806040525081019061126a919061319e565b506040516396f4e9f960e01b81526001600160a01b037f000000000000000000000000000000000000000000000000000000000000000016906396f4e9f9906112b9908a9086906004016130c4565b6020604051808303816000875af11580156112d8573d6000803e3d6000fd5b505050506040513d601f19601f820116820180604052508101906112fc9190613059565b94506113c3565b4781111561132d576040516328fdcaa160e01b815247600482015260248101829052604401610594565b6040516396f4e9f960e01b81526001600160a01b037f000000000000000000000000000000000000000000000000000000000000000016906396f4e9f990839061137d908b9087906004016130c4565b60206040518083038185885af115801561139b573d6000803e3d6000fd5b50505050506040513d601f19601f820116820180604052508101906113c09190613059565b94505b604080516001600160a01b03808d1682528b16602082015290810189905267ffffffffffffffff7f000000000000000000000000000000000000000000000000000000000000000081166060830152881660808201527fa9f07ae17940e1d4158dd439217c292ffc5cd591eb8533d395ee1d797f171c8e9060a00160405180910390a1505050506114546001600755565b95945050505050565b6009546001600160a01b031633146114b75760405162461bcd60e51b815260206004820152601660248201527f4d7573742062652070726f706f736564206f776e6572000000000000000000006044820152606401610594565b600880546001600160a01b0319808216339081179093556009805490911690556040516001600160a01b03909116919082907f8be0079c531659141344cd1fd0a4f28419497f9722a3daafe3b4186f6b6457e090600090a350565b336001600160a01b037f00000000000000000000000000000000000000000000000000000000000000001614611576576040517fd7f73334000000000000000000000000000000000000000000000000000000008152336004820152602401610594565b61157e611d5f565b61158e6040820160208301612cd9565b67ffffffffffffffff81166000908152600c60205260409020546001600160a01b03166115da57604051630e19fdf760e11b815267ffffffffffffffff82166004820152602401610594565b6115ea6040830160208401612cd9565b6115f760408401846131bb565b8101906116049190612cf4565b67ffffffffffffffff82166000908152600c60205260409020546001600160a01b0382811691161461166d576040517fbaf46cd10000000000000000000000000000000000000000000000000000000081526001600160a01b0382166004820152602401610594565b600061167f6040860160208701612cd9565b9050600080808061169360608a018a6131bb565b8101906116a09190613209565b93509350935093506116b28383611971565b6116bc828261198b565b604080516001600160a01b0380871682528516602082015290810183905267ffffffffffffffff80871660608301527f00000000000000000000000000000000000000000000000000000000000000001660808201527f6e9bfe954c66a08ef8d6079c61c1858538c528eb7632e017fef134e4165fce119060a00160405180910390a15050505050505050610afd6001600755565b60606001805461045a90612e80565b610866338383611db8565b6117753383611a5e565b6117d75760405162461bcd60e51b815260206004820152602d60248201527f4552433732313a2063616c6c6572206973206e6f7420746f6b656e206f776e6560448201526c1c881bdc88185c1c1c9bdd9959609a1b6064820152608401610594565b6117e384848484611e86565b50505050565b606061044582611f04565b6117fc611915565b610afd8161200c565b60006001600160e01b031982167f490649060000000000000000000000000000000000000000000000000000000014806104455750610445826120b6565b6000818152600260205260409020546001600160a01b0316610afd5760405162461bcd60e51b815260206004820152601860248201527f4552433732313a20696e76616c696420746f6b656e20494400000000000000006044820152606401610594565b600081815260046020526040902080546001600160a01b0319166001600160a01b03841690811790915581906118dc82610c7f565b6001600160a01b03167f8c5be1e5ebec7d5bd14f71427d1e84f3dd0314c0f7b2291e5b200ac8c7c3b92560405160405180910390a45050565b6008546001600160a01b0316331461196f5760405162461bcd60e51b815260206004820152601660248201527f4f6e6c792063616c6c61626c65206279206f776e6572000000000000000000006044820152606401610594565b565b610866828260405180602001604052806000815250612151565b6000828152600260205260409020546001600160a01b0316611a155760405162461bcd60e51b815260206004820152602e60248201527f45524337323155524953746f726167653a2055524920736574206f66206e6f6e60448201527f6578697374656e7420746f6b656e0000000000000000000000000000000000006064820152608401610594565b6000828152600660205260409020611a2d8282612f08565b506040518281527ff8e1a15aba9398e019f0b49df1a4fde98ee17ae345cb5f6b5e2c27f5033e8ce790602001610a62565b600080611a6a83610c7f565b9050806001600160a01b0316846001600160a01b03161480611ab157506001600160a01b0380821660009081526005602090815260408083209388168352929052205460ff165b80611ad55750836001600160a01b0316611aca846104dd565b6001600160a01b0316145b949350505050565b826001600160a01b0316611af082610c7f565b6001600160a01b031614611b545760405162461bcd60e51b815260206004820152602560248201527f4552433732313a207472616e736665722066726f6d20696e636f72726563742060448201526437bbb732b960d91b6064820152608401610594565b6001600160a01b038216611bcf5760405162461bcd60e51b8152602060048201526024808201527f4552433732313a207472616e7366657220746f20746865207a65726f2061646460448201527f72657373000000000000000000000000000000000000000000000000000000006064820152608401610594565b826001600160a01b0316611be282610c7f565b6001600160a01b031614611c465760405162461bcd60e51b815260206004820152602560248201527f4552433732313a207472616e736665722066726f6d20696e636f72726563742060448201526437bbb732b960d91b6064820152608401610594565b600081815260046020908152604080832080546001600160a01b03199081169091556001600160a01b0387811680865260038552838620805460001901905590871680865283862080546001019055868652600290945282852080549092168417909155905184937fddf252ad1be2c89b69c2b068fc378daa952ba7f163c4a11628f55a4df523b3ef91a4505050565b604080516001600160a01b038416602482015260448082018490528251808303909101815260649091019091526020810180517bffffffffffffffffffffffffffffffffffffffffffffffffffffffff167fa9059cbb000000000000000000000000000000000000000000000000000000001790526106359084906121cf565b610afd816122b7565b600260075403611db15760405162461bcd60e51b815260206004820152601f60248201527f5265656e7472616e637947756172643a207265656e7472616e742063616c6c006044820152606401610594565b6002600755565b816001600160a01b0316836001600160a01b031603611e195760405162461bcd60e51b815260206004820152601960248201527f4552433732313a20617070726f766520746f2063616c6c6572000000000000006044820152606401610594565b6001600160a01b03838116600081815260056020908152604080832094871680845294825291829020805460ff191686151590811790915591519182527f17307eab39ab6107e8899845ad3d59bd9653f200f220920489ca2b5937696c31910160405180910390a3505050565b611e91848484611add565b611e9d848484846122f7565b6117e35760405162461bcd60e51b815260206004820152603260248201527f4552433732313a207472616e7366657220746f206e6f6e20455243373231526560448201527131b2b4bb32b91034b6b83632b6b2b73a32b960711b6064820152608401610594565b6060611f0f82611843565b60008281526006602052604081208054611f2890612e80565b80601f0160208091040260200160405190810160405280929190818152602001828054611f5490612e80565b8015611fa15780601f10611f7657610100808354040283529160200191611fa1565b820191906000526020600020905b815481529060010190602001808311611f8457829003601f168201915b505050505090506000611fbf60408051602081019091526000815290565b90508051600003611fd1575092915050565b815115612003578082604051602001611feb92919061327d565b60405160208183030381529060405292505050919050565b611ad584612443565b336001600160a01b038216036120645760405162461bcd60e51b815260206004820152601760248201527f43616e6e6f74207472616e7366657220746f2073656c660000000000000000006044820152606401610594565b600980546001600160a01b0319166001600160a01b03838116918217909255600854604051919216907fed8889f560326eb138920d842192f0eb3dd22b4f139c87a2c57538e05bae127890600090a350565b60006001600160e01b031982167f80ac58cd00000000000000000000000000000000000000000000000000000000148061211957506001600160e01b031982167f5b5e139f00000000000000000000000000000000000000000000000000000000145b8061044557507f01ffc9a7000000000000000000000000000000000000000000000000000000006001600160e01b0319831614610445565b61215b83836124b7565b61216860008484846122f7565b6106355760405162461bcd60e51b815260206004820152603260248201527f4552433732313a207472616e7366657220746f206e6f6e20455243373231526560448201527131b2b4bb32b91034b6b83632b6b2b73a32b960711b6064820152608401610594565b6000612224826040518060400160405280602081526020017f5361666545524332303a206c6f772d6c6576656c2063616c6c206661696c6564815250856001600160a01b03166126429092919063ffffffff16565b9050805160001480612245575080806020019051810190612245919061319e565b6106355760405162461bcd60e51b815260206004820152602a60248201527f5361666545524332303a204552433230206f7065726174696f6e20646964206e60448201527f6f742073756363656564000000000000000000000000000000000000000000006064820152608401610594565b6122c081612651565b600081815260066020526040902080546122d990612e80565b159050610afd576000818152600660205260408120610afd916129f8565b60006001600160a01b0384163b1561243857604051630a85bd0160e11b81526001600160a01b0385169063150b7a029061233b903390899088908890600401613072565b6020604051808303816000875af1925050508015612376575060408051601f3d908101601f19168201909252612373918101906132ac565b60015b61241e573d8080156123a4576040519150601f19603f3d011682016040523d82523d6000602084013e6123a9565b606091505b5080516000036124165760405162461bcd60e51b815260206004820152603260248201527f4552433732313a207472616e7366657220746f206e6f6e20455243373231526560448201527131b2b4bb32b91034b6b83632b6b2b73a32b960711b6064820152608401610594565b805181602001fd5b6001600160e01b031916630a85bd0160e11b149050611ad5565b506001949350505050565b606061244e82611843565b600061246560408051602081019091526000815290565b9050600081511161248557604051806020016040528060008152506124b0565b8061248f846126e6565b6040516020016124a092919061327d565b6040516020818303038152906040525b9392505050565b6001600160a01b03821661250d5760405162461bcd60e51b815260206004820181905260248201527f4552433732313a206d696e7420746f20746865207a65726f20616464726573736044820152606401610594565b6000818152600260205260409020546001600160a01b0316156125725760405162461bcd60e51b815260206004820152601c60248201527f4552433732313a20746f6b656e20616c7265616479206d696e746564000000006044820152606401610594565b6000818152600260205260409020546001600160a01b0316156125d75760405162461bcd60e51b815260206004820152601c60248201527f4552433732313a20746f6b656e20616c7265616479206d696e746564000000006044820152606401610594565b6001600160a01b038216600081815260036020908152604080832080546001019055848352600290915280822080546001600160a01b0319168417905551839291907fddf252ad1be2c89b69c2b068fc378daa952ba7f163c4a11628f55a4df523b3ef908290a45050565b6060611ad58484600085612786565b600061265c82610c7f565b905061266782610c7f565b600083815260046020908152604080832080546001600160a01b03199081169091556001600160a01b0385168085526003845282852080546000190190558785526002909352818420805490911690555192935084927fddf252ad1be2c89b69c2b068fc378daa952ba7f163c4a11628f55a4df523b3ef908390a45050565b606060006126f383612878565b600101905060008167ffffffffffffffff81111561271357612713612b53565b6040519080825280601f01601f19166020018201604052801561273d576020820181803683370190505b5090508181016020015b600019017f3031323334353637383961626364656600000000000000000000000000000000600a86061a8153600a850494508461274757509392505050565b6060824710156127fe5760405162461bcd60e51b815260206004820152602660248201527f416464726573733a20696e73756666696369656e742062616c616e636520666f60448201527f722063616c6c00000000000000000000000000000000000000000000000000006064820152608401610594565b600080866001600160a01b0316858760405161281a91906132c9565b60006040518083038185875af1925050503d8060008114612857576040519150601f19603f3d011682016040523d82523d6000602084013e61285c565b606091505b509150915061286d8783838761295a565b979650505050505050565b6000807a184f03e93ff9f4daa797ed6e38ed64bf6a1f01000000000000000083106128c1577a184f03e93ff9f4daa797ed6e38ed64bf6a1f010000000000000000830492506040015b6d04ee2d6d415b85acef810000000083106128ed576d04ee2d6d415b85acef8100000000830492506020015b662386f26fc10000831061290b57662386f26fc10000830492506010015b6305f5e1008310612923576305f5e100830492506008015b612710831061293757612710830492506004015b60648310612949576064830492506002015b600a83106104455760010192915050565b606083156129c95782516000036129c2576001600160a01b0385163b6129c25760405162461bcd60e51b815260206004820152601d60248201527f416464726573733a2063616c6c20746f206e6f6e2d636f6e74726163740000006044820152606401610594565b5081611ad5565b611ad583838151156129de5781518083602001fd5b8060405162461bcd60e51b81526004016105949190612ac9565b508054612a0490612e80565b6000825580601f10612a14575050565b601f016020900490600052602060002090810190610afd91905b80821115612a425760008155600101612a2e565b5090565b6001600160e01b031981168114610afd57600080fd5b600060208284031215612a6e57600080fd5b81356124b081612a46565b60005b83811015612a94578181015183820152602001612a7c565b50506000910152565b60008151808452612ab5816020860160208601612a79565b601f01601f19169290920160200192915050565b6020815260006124b06020830184612a9d565b600060208284031215612aee57600080fd5b5035919050565b6001600160a01b0381168114610afd57600080fd5b60008060408385031215612b1d57600080fd5b8235612b2881612af5565b946020939093013593505050565b803567ffffffffffffffff81168114612b4e57600080fd5b919050565b634e487b7160e01b600052604160045260246000fd5b600067ffffffffffffffff80841115612b8457612b84612b53565b604051601f8501601f19908116603f01168101908282118183101715612bac57612bac612b53565b81604052809350858152868686011115612bc557600080fd5b858560208301376000602087830101525050509392505050565b600082601f830112612bf057600080fd5b6124b083833560208501612b69565b600080600060608486031215612c1457600080fd5b612c1d84612b36565b92506020840135612c2d81612af5565b9150604084013567ffffffffffffffff811115612c4957600080fd5b612c5586828701612bdf565b9150509250925092565b600080600060608486031215612c7457600080fd5b8335612c7f81612af5565b92506020840135612c8f81612af5565b929592945050506040919091013590565b60008060408385031215612cb357600080fd5b8235612cbe81612af5565b91506020830135612cce81612af5565b809150509250929050565b600060208284031215612ceb57600080fd5b6124b082612b36565b600060208284031215612d0657600080fd5b81356124b081612af5565b6001600160a01b0383168152604060208201526000611ad56040830184612a9d565b600080600080600060a08688031215612d4b57600080fd5b8535612d5681612af5565b94506020860135612d6681612af5565b935060408601359250612d7b60608701612b36565b9150608086013560028110612d8f57600080fd5b809150509295509295909350565b600060208284031215612daf57600080fd5b813567ffffffffffffffff811115612dc657600080fd5b820160a081850312156124b057600080fd5b8015158114610afd57600080fd5b60008060408385031215612df957600080fd5b8235612e0481612af5565b91506020830135612cce81612dd8565b60008060008060808587031215612e2a57600080fd5b8435612e3581612af5565b93506020850135612e4581612af5565b925060408501359150606085013567ffffffffffffffff811115612e6857600080fd5b612e7487828801612bdf565b91505092959194509250565b600181811c90821680612e9457607f821691505b602082108103612eb457634e487b7160e01b600052602260045260246000fd5b50919050565b601f82111561063557600081815260208120601f850160051c81016020861015612ee15750805b601f850160051c820191505b81811015612f0057828155600101612eed565b505050505050565b815167ffffffffffffffff811115612f2257612f22612b53565b612f3681612f308454612e80565b84612eba565b602080601f831160018114612f6b5760008415612f535750858301515b600019600386901b1c1916600185901b178555612f00565b600085815260208120601f198616915b82811015612f9a57888601518255948401946001909101908401612f7b565b5085821015612fb85787850151600019600388901b60f8161c191681555b5050505050600190811b01905550565b67ffffffffffffffff841681526001600160a01b03831660208201526060604082015260006114546060830184612a9d565b60006001820161301a57634e487b7160e01b600052601160045260246000fd5b5060010190565b60008261303e57634e487b7160e01b600052601260045260246000fd5b500690565b634e487b7160e01b600052603260045260246000fd5b60006020828403121561306b57600080fd5b5051919050565b60006001600160a01b038087168352808616602084015250836040830152608060608301526130a46080830184612a9d565b9695505050505050565b634e487b7160e01b600052602160045260246000fd5b6000604067ffffffffffffffff8516835260208181850152845160a0838601526130f160e0860182612a9d565b905081860151603f198087840301606088015261310e8383612a9d565b88860151888203830160808a01528051808352908601945060009350908501905b8084101561316157845180516001600160a01b031683528601518683015293850193600193909301929086019061312f565b5060608901516001600160a01b031660a08901526080890151888203830160c08a015295506131908187612a9d565b9a9950505050505050505050565b6000602082840312156131b057600080fd5b81516124b081612dd8565b6000808335601e198436030181126131d257600080fd5b83018035915067ffffffffffffffff8211156131ed57600080fd5b60200191503681900382131561320257600080fd5b9250929050565b6000806000806080858703121561321f57600080fd5b843561322a81612af5565b9350602085013561323a81612af5565b925060408501359150606085013567ffffffffffffffff81111561325d57600080fd5b8501601f8101871361326e57600080fd5b612e7487823560208401612b69565b6000835161328f818460208801612a79565b8351908301906132a3818360208801612a79565b01949350505050565b6000602082840312156132be57600080fd5b81516124b081612a46565b600082516132db818460208701612a79565b919091019291505056fea264697066735822122050159907e18ed257ed6e83afcb51e446011c50531b6dffa3e15261dd2385de4864736f6c6343000814003368747470733a2f2f697066732e696f2f697066732f516d5731746f61705973374d3239727a4c5854454e6e33706276776538696f696b583150777a41437a6a666448503f66696c656e616d653d436861696e6c696e6b5f4f72632e706e6768747470733a2f2f697066732e696f2f697066732f516d5a47514139327269316a667a537536314a52614e5158596731624c754d37703859543833447a4641324b4c483f66696c656e616d653d436861696e6c696e6b5f4b6e696768742e706e6768747470733a2f2f697066732e696f2f697066732f516d504d775174467045644b72556a70514a666f54655a533161565365754a54364d6f66377556323941635570463f66696c656e616d653d436861696e6c696e6b5f57697463682e706e6768747470733a2f2f697066732e696f2f697066732f516d5467716e6846424d6b665439733850484b636458426e3166356247335135686d426152345536686f547662313f66696c656e616d653d436861696e6c696e6b5f456c662e706e67",
  "devdoc": {
    "events": {
      "Approval(address,address,uint256)": {
        "details": "Emitted when `owner` enables `approved` to manage the `tokenId` token."
      },
      "ApprovalForAll(address,address,bool)": {
        "details": "Emitted when `owner` enables or disables (`approved`) `operator` to manage all of its assets."
      },
      "BatchMetadataUpdate(uint256,uint256)": {
        "details": "This event emits when the metadata of a range of tokens is changed. So that the third-party platforms such as NFT market could timely update the images and related attributes of the NFTs."
      },
      "MetadataUpdate(uint256)": {
        "details": "This event emits when the metadata of a token is changed. So that the third-party platforms such as NFT market could timely update the images and related attributes of the NFT."
      },
      "Transfer(address,address,uint256)": {
        "details": "Emitted when `tokenId` token is transferred from `from` to `to`."
      }
    },
    "kind": "dev",
    "methods": {
      "approve(address,uint256)": {
        "details": "See {IERC721-approve}."
      },
      "balanceOf(address)": {
        "details": "See {IERC721-balanceOf}."
      },
      "burn(uint256)": {
        "details": "Burns `tokenId`. See {ERC721-_burn}. Requirements: - The caller must own `tokenId` or be an approved operator."
      },
      "ccipReceive((bytes32,uint64,bytes,bytes,(address,uint256)[]))": {
        "details": "Note ensure you check the msg.sender is the OffRampRouter",
        "params": {
          "message": "CCIP Message"
        }
      },
      "getApproved(uint256)": {
        "details": "See {IERC721-getApproved}."
      },
      "isApprovedForAll(address,address)": {
        "details": "See {IERC721-isApprovedForAll}."
      },
      "name()": {
        "details": "See {IERC721Metadata-name}."
      },
      "ownerOf(uint256)": {
        "details": "See {IERC721-ownerOf}."
      },
      "safeTransferFrom(address,address,uint256)": {
        "details": "See {IERC721-safeTransferFrom}."
      },
      "safeTransferFrom(address,address,uint256,bytes)": {
        "details": "See {IERC721-safeTransferFrom}."
      },
      "setApprovalForAll(address,bool)": {
        "details": "See {IERC721-setApprovalForAll}."
      },
      "symbol()": {
        "details": "See {IERC721Metadata-symbol}."
      },
      "transferFrom(address,address,uint256)": {
        "details": "See {IERC721-transferFrom}."
      }
    },
    "version": 1
  },
  "userdoc": {
    "kind": "user",
    "methods": {
      "acceptOwnership()": {
        "notice": "Allows an ownership transfer to be completed by the recipient."
      },
      "ccipReceive((bytes32,uint64,bytes,bytes,(address,uint256)[]))": {
        "notice": "Called by the Router to deliver a message. If this reverts, any token transfers also revert. The message will move to a FAILED state and become available for manual execution."
      },
      "owner()": {
        "notice": "Get the current owner"
      },
      "transferOwnership(address)": {
        "notice": "Allows an owner to begin transferring ownership to a new address."
      }
    },
    "notice": "THIS IS AN EXAMPLE CONTRACT THAT USES HARDCODED VALUES FOR CLARITY. THIS IS AN EXAMPLE CONTRACT THAT USES UN-AUDITED CODE. DO NOT USE THIS CODE IN PRODUCTION.",
    "version": 1
  },
  "storageLayout": {
    "storage": [
      {
        "astId": 1156,
        "contract": "contracts/XNFT.sol:XNFT",
        "label": "_name",
        "offset": 0,
        "slot": "0",
        "type": "t_string_storage"
      },
      {
        "astId": 1158,
        "contract": "contracts/XNFT.sol:XNFT",
        "label": "_symbol",
        "offset": 0,
        "slot": "1",
        "type": "t_string_storage"
      },
      {
        "astId": 1162,
        "contract": "contracts/XNFT.sol:XNFT",
        "label": "_owners",
        "offset": 0,
        "slot": "2",
        "type": "t_mapping(t_uint256,t_address)"
      },
      {
        "astId": 1166,
        "contract": "contracts/XNFT.sol:XNFT",
        "label": "_balances",
        "offset": 0,
        "slot": "3",
        "type": "t_mapping(t_address,t_uint256)"
      },
      {
        "astId": 1170,
        "contract": "contracts/XNFT.sol:XNFT",
        "label": "_tokenApprovals",
        "offset": 0,
        "slot": "4",
        "type": "t_mapping(t_uint256,t_address)"
      },
      {
        "astId": 1176,
        "contract": "contracts/XNFT.sol:XNFT",
        "label": "_operatorApprovals",
        "offset": 0,
        "slot": "5",
        "type": "t_mapping(t_address,t_mapping(t_address,t_bool))"
      },
      {
        "astId": 2591,
        "contract": "contracts/XNFT.sol:XNFT",
        "label": "_tokenURIs",
        "offset": 0,
        "slot": "6",
        "type": "t_mapping(t_uint256,t_string_storage)"
      },
      {
        "astId": 586,
        "contract": "contracts/XNFT.sol:XNFT",
        "label": "_status",
        "offset": 0,
        "slot": "7",
        "type": "t_uint256"
      },
      {
        "astId": 150,
        "contract": "contracts/XNFT.sol:XNFT",
        "label": "s_owner",
        "offset": 0,
        "slot": "8",
        "type": "t_address"
      },
      {
        "astId": 152,
        "contract": "contracts/XNFT.sol:XNFT",
        "label": "s_pendingOwner",
        "offset": 0,
        "slot": "9",
        "type": "t_address"
      },
      {
        "astId": 4553,
        "contract": "contracts/XNFT.sol:XNFT",
        "label": "characters",
        "offset": 0,
        "slot": "10",
        "type": "t_array(t_string_storage)dyn_storage"
      },
      {
        "astId": 4563,
        "contract": "contracts/XNFT.sol:XNFT",
        "label": "_nextTokenId",
        "offset": 0,
        "slot": "11",
        "type": "t_uint256"
      },
      {
        "astId": 4568,
        "contract": "contracts/XNFT.sol:XNFT",
        "label": "s_chains",
        "offset": 0,
        "slot": "12",
        "type": "t_mapping(t_uint64,t_struct(XNftDetails)4542_storage)"
      }
    ],
    "types": {
      "t_address": {
        "encoding": "inplace",
        "label": "address",
        "numberOfBytes": "20"
      },
      "t_array(t_string_storage)dyn_storage": {
        "base": "t_string_storage",
        "encoding": "dynamic_array",
        "label": "string[]",
        "numberOfBytes": "32"
      },
      "t_bool": {
        "encoding": "inplace",
        "label": "bool",
        "numberOfBytes": "1"
      },
      "t_bytes_storage": {
        "encoding": "bytes",
        "label": "bytes",
        "numberOfBytes": "32"
      },
      "t_mapping(t_address,t_bool)": {
        "encoding": "mapping",
        "key": "t_address",
        "label": "mapping(address => bool)",
        "numberOfBytes": "32",
        "value": "t_bool"
      },
      "t_mapping(t_address,t_mapping(t_address,t_bool))": {
        "encoding": "mapping",
        "key": "t_address",
        "label": "mapping(address => mapping(address => bool))",
        "numberOfBytes": "32",
        "value": "t_mapping(t_address,t_bool)"
      },
      "t_mapping(t_address,t_uint256)": {
        "encoding": "mapping",
        "key": "t_address",
        "label": "mapping(address => uint256)",
        "numberOfBytes": "32",
        "value": "t_uint256"
      },
      "t_mapping(t_uint256,t_address)": {
        "encoding": "mapping",
        "key": "t_uint256",
        "label": "mapping(uint256 => address)",
        "numberOfBytes": "32",
        "value": "t_address"
      },
      "t_mapping(t_uint256,t_string_storage)": {
        "encoding": "mapping",
        "key": "t_uint256",
        "label": "mapping(uint256 => string)",
        "numberOfBytes": "32",
        "value": "t_string_storage"
      },
      "t_mapping(t_uint64,t_struct(XNftDetails)4542_storage)": {
        "encoding": "mapping",
        "key": "t_uint64",
        "label": "mapping(uint64 => struct XNFT.XNftDetails)",
        "numberOfBytes": "32",
        "value": "t_struct(XNftDetails)4542_storage"
      },
      "t_string_storage": {
        "encoding": "bytes",
        "label": "string",
        "numberOfBytes": "32"
      },
      "t_struct(XNftDetails)4542_storage": {
        "encoding": "inplace",
        "label": "struct XNFT.XNftDetails",
        "members": [
          {
            "astId": 4539,
            "contract": "contracts/XNFT.sol:XNFT",
            "label": "xNftAddress",
            "offset": 0,
            "slot": "0",
            "type": "t_address"
          },
          {
            "astId": 4541,
            "contract": "contracts/XNFT.sol:XNFT",
            "label": "ccipExtraArgsBytes",
            "offset": 0,
            "slot": "1",
            "type": "t_bytes_storage"
          }
        ],
        "numberOfBytes": "64"
      },
      "t_uint256": {
        "encoding": "inplace",
        "label": "uint256",
        "numberOfBytes": "32"
      },
      "t_uint64": {
        "encoding": "inplace",
        "label": "uint64",
        "numberOfBytes": "8"
      }
    }
  }
}