{
  "address": "0x41C6D1c02006B86689DC975c1F17e859ad5a19Cc",
  "abi": [
    {
      "inputs": [
        {
          "internalType": "address",
          "name": "ccipRouterAddress",
          "type": "address"
        },
        {
          "internalType": "address",
          "name": "linkTokenAddress",
          "type": "address"
        },
        {
          "internalType": "uint64",
          "name": "currentChainSelector",
          "type": "uint64"
        }
      ],
      "stateMutability": "nonpayable",
      "type": "constructor"
    },
    {
      "inputs": [
        {
          "internalType": "uint64",
          "name": "chainSelector",
          "type": "uint64"
        }
      ],
      "name": "ChainNotEnabled",
      "type": "error"
    },
    {
      "inputs": [
        {
          "internalType": "address",
          "name": "owner",
          "type": "address"
        },
        {
          "internalType": "address",
          "name": "target",
          "type": "address"
        },
        {
          "internalType": "uint256",
          "name": "value",
          "type": "uint256"
        }
      ],
      "name": "FailedToWithdrawEth",
      "type": "error"
    },
    {
      "inputs": [
        {
          "internalType": "address",
          "name": "router",
          "type": "address"
        }
      ],
      "name": "InvalidRouter",
      "type": "error"
    },
    {
      "inputs": [
        {
          "internalType": "uint256",
          "name": "currentBalance",
          "type": "uint256"
        },
        {
          "internalType": "uint256",
          "name": "calculatedFees",
          "type": "uint256"
        }
      ],
      "name": "NotEnoughBalanceForFees",
      "type": "error"
    },
    {
      "inputs": [],
      "name": "NothingToWithdraw",
      "type": "error"
    },
    {
      "inputs": [],
      "name": "OnlyOnArbitrumSepolia",
      "type": "error"
    },
    {
      "inputs": [
        {
          "internalType": "uint64",
          "name": "chainSelector",
          "type": "uint64"
        }
      ],
      "name": "OperationNotAllowedOnCurrentChain",
      "type": "error"
    },
    {
      "inputs": [
        {
          "internalType": "address",
          "name": "sender",
          "type": "address"
        }
      ],
      "name": "SenderNotEnabled",
      "type": "error"
    },
    {
      "anonymous": false,
      "inputs": [
        {
          "indexed": true,
          "internalType": "address",
          "name": "owner",
          "type": "address"
        },
        {
          "indexed": true,
          "internalType": "address",
          "name": "approved",
          "type": "address"
        },
        {
          "indexed": true,
          "internalType": "uint256",
          "name": "tokenId",
          "type": "uint256"
        }
      ],
      "name": "Approval",
      "type": "event"
    },
    {
      "anonymous": false,
      "inputs": [
        {
          "indexed": true,
          "internalType": "address",
          "name": "owner",
          "type": "address"
        },
        {
          "indexed": true,
          "internalType": "address",
          "name": "operator",
          "type": "address"
        },
        {
          "indexed": false,
          "internalType": "bool",
          "name": "approved",
          "type": "bool"
        }
      ],
      "name": "ApprovalForAll",
      "type": "event"
    },
    {
      "anonymous": false,
      "inputs": [
        {
          "indexed": false,
          "internalType": "uint256",
          "name": "_fromTokenId",
          "type": "uint256"
        },
        {
          "indexed": false,
          "internalType": "uint256",
          "name": "_toTokenId",
          "type": "uint256"
        }
      ],
      "name": "BatchMetadataUpdate",
      "type": "event"
    },
    {
      "anonymous": false,
      "inputs": [
        {
          "indexed": false,
          "internalType": "uint64",
          "name": "chainSelector",
          "type": "uint64"
        }
      ],
      "name": "ChainDisabled",
      "type": "event"
    },
    {
      "anonymous": false,
      "inputs": [
        {
          "indexed": false,
          "internalType": "uint64",
          "name": "chainSelector",
          "type": "uint64"
        },
        {
          "indexed": false,
          "internalType": "address",
          "name": "xNftAddress",
          "type": "address"
        },
        {
          "indexed": false,
          "internalType": "bytes",
          "name": "ccipExtraArgs",
          "type": "bytes"
        }
      ],
      "name": "ChainEnabled",
      "type": "event"
    },
    {
      "anonymous": false,
      "inputs": [
        {
          "indexed": false,
          "internalType": "address",
          "name": "from",
          "type": "address"
        },
        {
          "indexed": false,
          "internalType": "address",
          "name": "to",
          "type": "address"
        },
        {
          "indexed": false,
          "internalType": "uint256",
          "name": "tokenId",
          "type": "uint256"
        },
        {
          "indexed": false,
          "internalType": "uint64",
          "name": "sourceChainSelector",
          "type": "uint64"
        },
        {
          "indexed": false,
          "internalType": "uint64",
          "name": "destinationChainSelector",
          "type": "uint64"
        }
      ],
      "name": "CrossChainReceived",
      "type": "event"
    },
    {
      "anonymous": false,
      "inputs": [
        {
          "indexed": false,
          "internalType": "address",
          "name": "from",
          "type": "address"
        },
        {
          "indexed": false,
          "internalType": "address",
          "name": "to",
          "type": "address"
        },
        {
          "indexed": false,
          "internalType": "uint256",
          "name": "tokenId",
          "type": "uint256"
        },
        {
          "indexed": false,
          "internalType": "uint64",
          "name": "sourceChainSelector",
          "type": "uint64"
        },
        {
          "indexed": false,
          "internalType": "uint64",
          "name": "destinationChainSelector",
          "type": "uint64"
        }
      ],
      "name": "CrossChainSent",
      "type": "event"
    },
    {
      "anonymous": false,
      "inputs": [
        {
          "indexed": false,
          "internalType": "uint256",
          "name": "_tokenId",
          "type": "uint256"
        }
      ],
      "name": "MetadataUpdate",
      "type": "event"
    },
    {
      "anonymous": false,
      "inputs": [
        {
          "indexed": true,
          "internalType": "address",
          "name": "from",
          "type": "address"
        },
        {
          "indexed": true,
          "internalType": "address",
          "name": "to",
          "type": "address"
        }
      ],
      "name": "OwnershipTransferRequested",
      "type": "event"
    },
    {
      "anonymous": false,
      "inputs": [
        {
          "indexed": true,
          "internalType": "address",
          "name": "from",
          "type": "address"
        },
        {
          "indexed": true,
          "internalType": "address",
          "name": "to",
          "type": "address"
        }
      ],
      "name": "OwnershipTransferred",
      "type": "event"
    },
    {
      "anonymous": false,
      "inputs": [
        {
          "indexed": true,
          "internalType": "address",
          "name": "from",
          "type": "address"
        },
        {
          "indexed": true,
          "internalType": "address",
          "name": "to",
          "type": "address"
        },
        {
          "indexed": true,
          "internalType": "uint256",
          "name": "tokenId",
          "type": "uint256"
        }
      ],
      "name": "Transfer",
      "type": "event"
    },
    {
      "inputs": [],
      "name": "acceptOwnership",
      "outputs": [],
      "stateMutability": "nonpayable",
      "type": "function"
    },
    {
      "inputs": [
        {
          "internalType": "address",
          "name": "to",
          "type": "address"
        },
        {
          "internalType": "uint256",
          "name": "tokenId",
          "type": "uint256"
        }
      ],
      "name": "approve",
      "outputs": [],
      "stateMutability": "nonpayable",
      "type": "function"
    },
    {
      "inputs": [
        {
          "internalType": "address",
          "name": "owner",
          "type": "address"
        }
      ],
      "name": "balanceOf",
      "outputs": [
        {
          "internalType": "uint256",
          "name": "",
          "type": "uint256"
        }
      ],
      "stateMutability": "view",
      "type": "function"
    },
    {
      "inputs": [
        {
          "internalType": "uint256",
          "name": "tokenId",
          "type": "uint256"
        }
      ],
      "name": "burn",
      "outputs": [],
      "stateMutability": "nonpayable",
      "type": "function"
    },
    {
      "inputs": [
        {
          "components": [
            {
              "internalType": "bytes32",
              "name": "messageId",
              "type": "bytes32"
            },
            {
              "internalType": "uint64",
              "name": "sourceChainSelector",
              "type": "uint64"
            },
            {
              "internalType": "bytes",
              "name": "sender",
              "type": "bytes"
            },
            {
              "internalType": "bytes",
              "name": "data",
              "type": "bytes"
            },
            {
              "components": [
                {
                  "internalType": "address",
                  "name": "token",
                  "type": "address"
                },
                {
                  "internalType": "uint256",
                  "name": "amount",
                  "type": "uint256"
                }
              ],
              "internalType": "struct Client.EVMTokenAmount[]",
              "name": "destTokenAmounts",
              "type": "tuple[]"
            }
          ],
          "internalType": "struct Client.Any2EVMMessage",
          "name": "message",
          "type": "tuple"
        }
      ],
      "name": "ccipReceive",
      "outputs": [],
      "stateMutability": "nonpayable",
      "type": "function"
    },
    {
      "inputs": [
        {
          "internalType": "address",
          "name": "from",
          "type": "address"
        },
        {
          "internalType": "address",
          "name": "to",
          "type": "address"
        },
        {
          "internalType": "uint256",
          "name": "tokenId",
          "type": "uint256"
        },
        {
          "internalType": "uint64",
          "name": "destinationChainSelector",
          "type": "uint64"
        },
        {
          "internalType": "enum XNFT.PayFeesIn",
          "name": "payFeesIn",
          "type": "uint8"
        }
      ],
      "name": "crossChainTransferFrom",
      "outputs": [
        {
          "internalType": "bytes32",
          "name": "messageId",
          "type": "bytes32"
        }
      ],
      "stateMutability": "nonpayable",
      "type": "function"
    },
    {
      "inputs": [
        {
          "internalType": "uint64",
          "name": "chainSelector",
          "type": "uint64"
        }
      ],
      "name": "disableChain",
      "outputs": [],
      "stateMutability": "nonpayable",
      "type": "function"
    },
    {
      "inputs": [
        {
          "internalType": "uint64",
          "name": "chainSelector",
          "type": "uint64"
        },
        {
          "internalType": "address",
          "name": "xNftAddress",
          "type": "address"
        },
        {
          "internalType": "bytes",
          "name": "ccipExtraArgs",
          "type": "bytes"
        }
      ],
      "name": "enableChain",
      "outputs": [],
      "stateMutability": "nonpayable",
      "type": "function"
    },
    {
      "inputs": [
        {
          "internalType": "uint256",
          "name": "tokenId",
          "type": "uint256"
        }
      ],
      "name": "getApproved",
      "outputs": [
        {
          "internalType": "address",
          "name": "",
          "type": "address"
        }
      ],
      "stateMutability": "view",
      "type": "function"
    },
    {
      "inputs": [],
      "name": "getCCIPRouter",
      "outputs": [
        {
          "internalType": "address",
          "name": "",
          "type": "address"
        }
      ],
      "stateMutability": "view",
      "type": "function"
    },
    {
      "inputs": [
        {
          "internalType": "address",
          "name": "owner",
          "type": "address"
        },
        {
          "internalType": "address",
          "name": "operator",
          "type": "address"
        }
      ],
      "name": "isApprovedForAll",
      "outputs": [
        {
          "internalType": "bool",
          "name": "",
          "type": "bool"
        }
      ],
      "stateMutability": "view",
      "type": "function"
    },
    {
      "inputs": [],
      "name": "mint",
      "outputs": [],
      "stateMutability": "nonpayable",
      "type": "function"
    },
    {
      "inputs": [
        {
          "internalType": "string",
          "name": "uri",
          "type": "string"
        }
      ],
      "name": "mint",
      "outputs": [],
      "stateMutability": "nonpayable",
      "type": "function"
    },
    {
      "inputs": [],
      "name": "name",
      "outputs": [
        {
          "internalType": "string",
          "name": "",
          "type": "string"
        }
      ],
      "stateMutability": "view",
      "type": "function"
    },
    {
      "inputs": [],
      "name": "owner",
      "outputs": [
        {
          "internalType": "address",
          "name": "",
          "type": "address"
        }
      ],
      "stateMutability": "view",
      "type": "function"
    },
    {
      "inputs": [
        {
          "internalType": "uint256",
          "name": "tokenId",
          "type": "uint256"
        }
      ],
      "name": "ownerOf",
      "outputs": [
        {
          "internalType": "address",
          "name": "",
          "type": "address"
        }
      ],
      "stateMutability": "view",
      "type": "function"
    },
    {
      "inputs": [
        {
          "internalType": "uint64",
          "name": "destChainSelector",
          "type": "uint64"
        }
      ],
      "name": "s_chains",
      "outputs": [
        {
          "internalType": "address",
          "name": "xNftAddress",
          "type": "address"
        },
        {
          "internalType": "bytes",
          "name": "ccipExtraArgsBytes",
          "type": "bytes"
        }
      ],
      "stateMutability": "view",
      "type": "function"
    },
    {
      "inputs": [
        {
          "internalType": "address",
          "name": "from",
          "type": "address"
        },
        {
          "internalType": "address",
          "name": "to",
          "type": "address"
        },
        {
          "internalType": "uint256",
          "name": "tokenId",
          "type": "uint256"
        }
      ],
      "name": "safeTransferFrom",
      "outputs": [],
      "stateMutability": "nonpayable",
      "type": "function"
    },
    {
      "inputs": [
        {
          "internalType": "address",
          "name": "from",
          "type": "address"
        },
        {
          "internalType": "address",
          "name": "to",
          "type": "address"
        },
        {
          "internalType": "uint256",
          "name": "tokenId",
          "type": "uint256"
        },
        {
          "internalType": "bytes",
          "name": "data",
          "type": "bytes"
        }
      ],
      "name": "safeTransferFrom",
      "outputs": [],
      "stateMutability": "nonpayable",
      "type": "function"
    },
    {
      "inputs": [
        {
          "internalType": "address",
          "name": "operator",
          "type": "address"
        },
        {
          "internalType": "bool",
          "name": "approved",
          "type": "bool"
        }
      ],
      "name": "setApprovalForAll",
      "outputs": [],
      "stateMutability": "nonpayable",
      "type": "function"
    },
    {
      "inputs": [
        {
          "internalType": "bytes4",
          "name": "interfaceId",
          "type": "bytes4"
        }
      ],
      "name": "supportsInterface",
      "outputs": [
        {
          "internalType": "bool",
          "name": "",
          "type": "bool"
        }
      ],
      "stateMutability": "view",
      "type": "function"
    },
    {
      "inputs": [],
      "name": "symbol",
      "outputs": [
        {
          "internalType": "string",
          "name": "",
          "type": "string"
        }
      ],
      "stateMutability": "view",
      "type": "function"
    },
    {
      "inputs": [
        {
          "internalType": "uint256",
          "name": "tokenId",
          "type": "uint256"
        }
      ],
      "name": "tokenURI",
      "outputs": [
        {
          "internalType": "string",
          "name": "",
          "type": "string"
        }
      ],
      "stateMutability": "view",
      "type": "function"
    },
    {
      "inputs": [
        {
          "internalType": "address",
          "name": "from",
          "type": "address"
        },
        {
          "internalType": "address",
          "name": "to",
          "type": "address"
        },
        {
          "internalType": "uint256",
          "name": "tokenId",
          "type": "uint256"
        }
      ],
      "name": "transferFrom",
      "outputs": [],
      "stateMutability": "nonpayable",
      "type": "function"
    },
    {
      "inputs": [
        {
          "internalType": "address",
          "name": "to",
          "type": "address"
        }
      ],
      "name": "transferOwnership",
      "outputs": [],
      "stateMutability": "nonpayable",
      "type": "function"
    },
    {
      "inputs": [
        {
          "internalType": "address",
          "name": "_beneficiary",
          "type": "address"
        }
      ],
      "name": "withdraw",
      "outputs": [],
      "stateMutability": "nonpayable",
      "type": "function"
    },
    {
      "inputs": [
        {
          "internalType": "address",
          "name": "_beneficiary",
          "type": "address"
        },
        {
          "internalType": "address",
          "name": "_token",
          "type": "address"
        }
      ],
      "name": "withdrawToken",
      "outputs": [],
      "stateMutability": "nonpayable",
      "type": "function"
    }
  ],
  "transactionHash": "0x8ea1cf118de8b79463dc714aef1262bfd01833241ee404fd97df0bb31ab46f4b",
  "args": [
    "0x2a9c5afb0d0e4bab2bcdae109ec4b0c4be15a165",
    "0xb1D4538B4571d411F07960EF2838Ce337FE1E80E",
    "3478487238524512106"
  ],
  "numDeployments": 2,
  "solcInputHash": "745cea38b8677b109233ad24c6666678",
  "bytecode": "0x6101e0604052605e61016081815260e09182919062003a3c6101803981526020016040518060a00160405280606181526020016200397b6061913981526020016040518060800160405280605e81526020016200391d605e91398152602001604051806080016040528060608152602001620039dc6060913990526200008a90600a906004620002bb565b503480156200009857600080fd5b5060405162003a9a38038062003a9a833981016040819052620000bb91620003af565b338060006040518060400160405280600f81526020016e10dc9bdcdcc810da185a5b88139195608a1b815250604051806040016040528060048152602001631613919560e21b8152508160009081620001159190620004ae565b506001620001248282620004ae565b50506001600755506001600160a01b038216620001885760405162461bcd60e51b815260206004820152601860248201527f43616e6e6f7420736574206f776e657220746f207a65726f000000000000000060448201526064015b60405180910390fd5b600880546001600160a01b0319166001600160a01b0384811691909117909155811615620001bb57620001bb816200020f565b5050506001600160a01b038316620001ea576040516335fdcccd60e21b8152600060048201526024016200017f565b6001600160a01b03928316608052911660a0526001600160401b031660c0526200057a565b336001600160a01b03821603620002695760405162461bcd60e51b815260206004820152601760248201527f43616e6e6f74207472616e7366657220746f2073656c6600000000000000000060448201526064016200017f565b600980546001600160a01b0319166001600160a01b03838116918217909255600854604051919216907fed8889f560326eb138920d842192f0eb3dd22b4f139c87a2c57538e05bae127890600090a350565b82805482825590600052602060002090810192821562000306579160200282015b82811115620003065782518290620002f59082620004ae565b5091602001919060010190620002dc565b506200031492915062000318565b5090565b80821115620003145760006200032f828262000339565b5060010162000318565b50805462000347906200041f565b6000825580601f1062000358575050565b601f0160209004906000526020600020908101906200037891906200037b565b50565b5b808211156200031457600081556001016200037c565b80516001600160a01b0381168114620003aa57600080fd5b919050565b600080600060608486031215620003c557600080fd5b620003d08462000392565b9250620003e06020850162000392565b60408501519092506001600160401b0381168114620003fe57600080fd5b809150509250925092565b634e487b7160e01b600052604160045260246000fd5b600181811c908216806200043457607f821691505b6020821081036200045557634e487b7160e01b600052602260045260246000fd5b50919050565b601f821115620004a957600081815260208120601f850160051c81016020861015620004845750805b601f850160051c820191505b81811015620004a55782815560010162000490565b5050505b505050565b81516001600160401b03811115620004ca57620004ca62000409565b620004e281620004db84546200041f565b846200045b565b602080601f8311600181146200051a5760008415620005015750858301515b600019600386901b1c1916600185901b178555620004a5565b600085815260208120601f198616915b828110156200054b578886015182559484019460019091019084016200052a565b50858210156200056a5787850151600019600388901b60f8161c191681555b5050505050600190811b01905550565b60805160a05160c051613326620005f7600039600081816106630152818161099c015281816113f101526116f2015260008181610ed60152818161107d0152818161110c01526112020152600081816102ca01528181610fc0015281816111d30152818161128701528181611349015261152201526133266000f3fe608060405234801561001057600080fd5b50600436106101b95760003560e01c80635dc5ebdb116100f957806395d89b4111610097578063c87b56dd11610071578063c87b56dd146103b0578063d85d3d27146103c3578063e985e9c5146103d6578063f2fde38b1461041257600080fd5b806395d89b4114610382578063a22cb4651461038a578063b88d4fde1461039d57600080fd5b806377c1506d116100d357806377c1506d1461034357806379ba50971461035657806385572ffb1461035e5780638da5cb5b1461037157600080fd5b80635dc5ebdb146102ee5780636352211e1461030f57806370a082311461032257600080fd5b806323b872dd1161016657806342842e0e1161014057806342842e0e1461028f57806342966c68146102a257806351cff8d9146102b5578063588cbd0e146102c857600080fd5b806323b872dd146102565780633aeac4e11461026957806341eade461461027c57600080fd5b8063095ea7b311610197578063095ea7b3146102265780630ce639c41461023b5780631249c58b1461024e57600080fd5b806301ffc9a7146101be57806306fdde03146101e6578063081812fc146101fb575b600080fd5b6101d16101cc366004612aaf565b610425565b60405190151581526020015b60405180910390f35b6101ee610469565b6040516101dd9190612b1c565b61020e610209366004612b2f565b6104fb565b6040516001600160a01b0390911681526020016101dd565b610239610234366004612b5d565b610522565b005b610239610249366004612c49565b610658565b610239610766565b610239610264366004612ca9565b61086f565b610239610277366004612cea565b6108e7565b61023961028a366004612d23565b610991565b61023961029d366004612ca9565b610a73565b6102396102b0366004612b2f565b610a8e565b6102396102c3366004612d3e565b610b05565b7f000000000000000000000000000000000000000000000000000000000000000061020e565b6103016102fc366004612d23565b610bd5565b6040516101dd929190612d5b565b61020e61031d366004612b2f565b610c84565b610335610330366004612d3e565b610ce9565b6040519081526020016101dd565b610335610351366004612d7d565b610d83565b610239611462565b61023961036c366004612de7565b611517565b6008546001600160a01b031661020e565b6101ee611756565b610239610398366004612e30565b611765565b6102396103ab366004612e5e565b611770565b6101ee6103be366004612b2f565b6117ee565b6102396103d1366004612eca565b6117f9565b6101d16103e4366004612cea565b6001600160a01b03918216600090815260056020908152604080832093909416825291909152205460ff1690565b610239610420366004612d3e565b611847565b60006001600160e01b031982167f85572ffb000000000000000000000000000000000000000000000000000000001480610463575061046382611858565b92915050565b60606000805461047890612eff565b80601f01602080910402602001604051908101604052809291908181526020018280546104a490612eff565b80156104f15780601f106104c6576101008083540402835291602001916104f1565b820191906000526020600020905b8154815290600101906020018083116104d457829003601f168201915b5050505050905090565b600061050682611896565b506000908152600460205260409020546001600160a01b031690565b600061052d82610c84565b9050806001600160a01b0316836001600160a01b0316036105bb5760405162461bcd60e51b815260206004820152602160248201527f4552433732313a20617070726f76616c20746f2063757272656e74206f776e6560448201527f720000000000000000000000000000000000000000000000000000000000000060648201526084015b60405180910390fd5b336001600160a01b03821614806105d757506105d781336103e4565b6106495760405162461bcd60e51b815260206004820152603d60248201527f4552433732313a20617070726f76652063616c6c6572206973206e6f7420746f60448201527f6b656e206f776e6572206f7220617070726f76656420666f7220616c6c00000060648201526084016105b2565b61065383836118fa565b505050565b610660611968565b827f000000000000000000000000000000000000000000000000000000000000000067ffffffffffffffff168167ffffffffffffffff16036106c1576040516340d8e3a160e01b815267ffffffffffffffff821660048201526024016105b2565b6040805180820182526001600160a01b038581168252602080830186815267ffffffffffffffff89166000908152600c909252939020825181546001600160a01b0319169216919091178155915190919060018201906107219082612f87565b509050507f59cc0b49d3359ac35e3872e99199469b6a1025c9a945cd9b6a411bffe337272d84848460405161075893929190613047565b60405180910390a150505050565b62066eee46146107895760405163e50e904760e01b815260040160405180910390fd5b600b80546000918261079a83613079565b90915550600a80549192506000916107b290846130a0565b815481106107c2576107c26130c2565b9060005260206000200180546107d790612eff565b80601f016020809104026020016040519081016040528092919081815260200182805461080390612eff565b80156108505780601f1061082557610100808354040283529160200191610850565b820191906000526020600020905b81548152906001019060200180831161083357829003601f168201915b5050505050905061086133836119c4565b61086b82826119de565b5050565b61087a335b82611ab1565b6108dc5760405162461bcd60e51b815260206004820152602d60248201527f4552433732313a2063616c6c6572206973206e6f7420746f6b656e206f776e6560448201526c1c881bdc88185c1c1c9bdd9959609a1b60648201526084016105b2565b610653838383611b30565b6108ef611968565b6040516370a0823160e01b81523060048201526000906001600160a01b038316906370a0823190602401602060405180830381865afa158015610936573d6000803e3d6000fd5b505050506040513d601f19601f8201168201806040525081019061095a91906130d8565b90508060000361097d57604051630686827b60e51b815260040160405180910390fd5b6106536001600160a01b0383168483611d29565b610999611968565b807f000000000000000000000000000000000000000000000000000000000000000067ffffffffffffffff168167ffffffffffffffff16036109fa576040516340d8e3a160e01b815267ffffffffffffffff821660048201526024016105b2565b67ffffffffffffffff82166000908152600c6020526040812080546001600160a01b031916815590610a2f6001830182612a4b565b505060405167ffffffffffffffff831681527f67e02000179a6045f4db8fb1b09f01e170b0347e0b698fc5112ce4d798ef19f6906020015b60405180910390a15050565b61065383838360405180602001604052806000815250611770565b610a9733610874565b610af95760405162461bcd60e51b815260206004820152602d60248201527f4552433732313a2063616c6c6572206973206e6f7420746f6b656e206f776e6560448201526c1c881bdc88185c1c1c9bdd9959609a1b60648201526084016105b2565b610b0281611da9565b50565b610b0d611968565b476000819003610b3057604051630686827b60e51b815260040160405180910390fd5b6000826001600160a01b03168260405160006040518083038185875af1925050503d8060008114610b7d576040519150601f19603f3d011682016040523d82523d6000602084013e610b82565b606091505b5050905080610653576040517f9d11f5630000000000000000000000000000000000000000000000000000000081523360048201526001600160a01b0384166024820152604481018390526064016105b2565b600c60205260009081526040902080546001820180546001600160a01b039092169291610c0190612eff565b80601f0160208091040260200160405190810160405280929190818152602001828054610c2d90612eff565b8015610c7a5780601f10610c4f57610100808354040283529160200191610c7a565b820191906000526020600020905b815481529060010190602001808311610c5d57829003601f168201915b5050505050905082565b6000818152600260205260408120546001600160a01b0316806104635760405162461bcd60e51b815260206004820152601860248201527f4552433732313a20696e76616c696420746f6b656e204944000000000000000060448201526064016105b2565b60006001600160a01b038216610d675760405162461bcd60e51b815260206004820152602960248201527f4552433732313a2061646472657373207a65726f206973206e6f74206120766160448201527f6c6964206f776e6572000000000000000000000000000000000000000000000060648201526084016105b2565b506001600160a01b031660009081526003602052604090205490565b6000610d8d611db2565b67ffffffffffffffff83166000908152600c602052604090205483906001600160a01b0316610ddb57604051630e19fdf760e11b815267ffffffffffffffff821660048201526024016105b2565b6000610de6866117ee565b9050610df186611da9565b6040805160a08101825267ffffffffffffffff87166000908152600c602052918220546001600160a01b031660c08201528060e0810160405160208183030381529060405281526020018a8a8a86604051602001610e5294939291906130f1565b60408051601f1981840301815291905281526020016000604051908082528060200260200182016040528015610eae57816020015b6040805180820190915260008082526020820152815260200190600190039081610e875790505b5081526020016001876001811115610ec857610ec861312d565b14610ed4576000610ef6565b7f00000000000000000000000000000000000000000000000000000000000000005b6001600160a01b03168152602001600c60008967ffffffffffffffff1667ffffffffffffffff1681526020019081526020016000206001018054610f3990612eff565b80601f0160208091040260200160405190810160405280929190818152602001828054610f6590612eff565b8015610fb25780601f10610f8757610100808354040283529160200191610fb2565b820191906000526020600020905b815481529060010190602001808311610f9557829003601f168201915b5050505050815250905060007f00000000000000000000000000000000000000000000000000000000000000006001600160a01b03166320487ded88846040518363ffffffff1660e01b815260040161100c929190613143565b602060405180830381865afa158015611029573d6000803e3d6000fd5b505050506040513d601f19601f8201168201806040525081019061104d91906130d8565b905060018660018111156110635761106361312d565b03611308576040516370a0823160e01b81523060048201527f00000000000000000000000000000000000000000000000000000000000000006001600160a01b0316906370a0823190602401602060405180830381865afa1580156110cc573d6000803e3d6000fd5b505050506040513d601f19601f820116820180604052508101906110f091906130d8565b8111156111a3576040516370a0823160e01b81523060048201527f00000000000000000000000000000000000000000000000000000000000000006001600160a01b0316906370a0823190602401602060405180830381865afa15801561115b573d6000803e3d6000fd5b505050506040513d601f19601f8201168201806040525081019061117f91906130d8565b6040516328fdcaa160e01b81526004810191909152602481018290526044016105b2565b6040517f095ea7b30000000000000000000000000000000000000000000000000000000081526001600160a01b037f000000000000000000000000000000000000000000000000000000000000000081166004830152602482018390527f0000000000000000000000000000000000000000000000000000000000000000169063095ea7b3906044016020604051808303816000875af115801561124b573d6000803e3d6000fd5b505050506040513d601f19601f8201168201806040525081019061126f919061321d565b506040516396f4e9f960e01b81526001600160a01b037f000000000000000000000000000000000000000000000000000000000000000016906396f4e9f9906112be908a908690600401613143565b6020604051808303816000875af11580156112dd573d6000803e3d6000fd5b505050506040513d601f19601f8201168201806040525081019061130191906130d8565b94506113c8565b47811115611332576040516328fdcaa160e01b8152476004820152602481018290526044016105b2565b6040516396f4e9f960e01b81526001600160a01b037f000000000000000000000000000000000000000000000000000000000000000016906396f4e9f9908390611382908b908790600401613143565b60206040518083038185885af11580156113a0573d6000803e3d6000fd5b50505050506040513d601f19601f820116820180604052508101906113c591906130d8565b94505b604080516001600160a01b03808d1682528b16602082015290810189905267ffffffffffffffff7f000000000000000000000000000000000000000000000000000000000000000081166060830152881660808201527fa9f07ae17940e1d4158dd439217c292ffc5cd591eb8533d395ee1d797f171c8e9060a00160405180910390a1505050506114596001600755565b95945050505050565b6009546001600160a01b031633146114bc5760405162461bcd60e51b815260206004820152601660248201527f4d7573742062652070726f706f736564206f776e65720000000000000000000060448201526064016105b2565b600880546001600160a01b0319808216339081179093556009805490911690556040516001600160a01b03909116919082907f8be0079c531659141344cd1fd0a4f28419497f9722a3daafe3b4186f6b6457e090600090a350565b336001600160a01b037f0000000000000000000000000000000000000000000000000000000000000000161461157b576040517fd7f733340000000000000000000000000000000000000000000000000000000081523360048201526024016105b2565b611583611db2565b6115936040820160208301612d23565b67ffffffffffffffff81166000908152600c60205260409020546001600160a01b03166115df57604051630e19fdf760e11b815267ffffffffffffffff821660048201526024016105b2565b6115ef6040830160208401612d23565b6115fc604084018461323a565b8101906116099190612d3e565b67ffffffffffffffff82166000908152600c60205260409020546001600160a01b03828116911614611672576040517fbaf46cd10000000000000000000000000000000000000000000000000000000081526001600160a01b03821660048201526024016105b2565b60006116846040860160208701612d23565b9050600080808061169860608a018a61323a565b8101906116a59190612e5e565b93509350935093506116b783836119c4565b6116c182826119de565b604080516001600160a01b0380871682528516602082015290810183905267ffffffffffffffff80871660608301527f00000000000000000000000000000000000000000000000000000000000000001660808201527f6e9bfe954c66a08ef8d6079c61c1858538c528eb7632e017fef134e4165fce119060a00160405180910390a15050505050505050610b026001600755565b60606001805461047890612eff565b61086b338383611e0b565b61177a3383611ab1565b6117dc5760405162461bcd60e51b815260206004820152602d60248201527f4552433732313a2063616c6c6572206973206e6f7420746f6b656e206f776e6560448201526c1c881bdc88185c1c1c9bdd9959609a1b60648201526084016105b2565b6117e884848484611ed9565b50505050565b606061046382611f57565b62066eee461461181c5760405163e50e904760e01b815260040160405180910390fd5b600b80546000918261182d83613079565b91905055905061183d33826119c4565b61086b81836119de565b61184f611968565b610b028161205f565b60006001600160e01b031982167f49064906000000000000000000000000000000000000000000000000000000001480610463575061046382612109565b6000818152600260205260409020546001600160a01b0316610b025760405162461bcd60e51b815260206004820152601860248201527f4552433732313a20696e76616c696420746f6b656e204944000000000000000060448201526064016105b2565b600081815260046020526040902080546001600160a01b0319166001600160a01b038416908117909155819061192f82610c84565b6001600160a01b03167f8c5be1e5ebec7d5bd14f71427d1e84f3dd0314c0f7b2291e5b200ac8c7c3b92560405160405180910390a45050565b6008546001600160a01b031633146119c25760405162461bcd60e51b815260206004820152601660248201527f4f6e6c792063616c6c61626c65206279206f776e65720000000000000000000060448201526064016105b2565b565b61086b8282604051806020016040528060008152506121a4565b6000828152600260205260409020546001600160a01b0316611a685760405162461bcd60e51b815260206004820152602e60248201527f45524337323155524953746f726167653a2055524920736574206f66206e6f6e60448201527f6578697374656e7420746f6b656e00000000000000000000000000000000000060648201526084016105b2565b6000828152600660205260409020611a808282612f87565b506040518281527ff8e1a15aba9398e019f0b49df1a4fde98ee17ae345cb5f6b5e2c27f5033e8ce790602001610a67565b600080611abd83610c84565b9050806001600160a01b0316846001600160a01b03161480611b0457506001600160a01b0380821660009081526005602090815260408083209388168352929052205460ff165b80611b285750836001600160a01b0316611b1d846104fb565b6001600160a01b0316145b949350505050565b826001600160a01b0316611b4382610c84565b6001600160a01b031614611ba75760405162461bcd60e51b815260206004820152602560248201527f4552433732313a207472616e736665722066726f6d20696e636f72726563742060448201526437bbb732b960d91b60648201526084016105b2565b6001600160a01b038216611c225760405162461bcd60e51b8152602060048201526024808201527f4552433732313a207472616e7366657220746f20746865207a65726f2061646460448201527f726573730000000000000000000000000000000000000000000000000000000060648201526084016105b2565b826001600160a01b0316611c3582610c84565b6001600160a01b031614611c995760405162461bcd60e51b815260206004820152602560248201527f4552433732313a207472616e736665722066726f6d20696e636f72726563742060448201526437bbb732b960d91b60648201526084016105b2565b600081815260046020908152604080832080546001600160a01b03199081169091556001600160a01b0387811680865260038552838620805460001901905590871680865283862080546001019055868652600290945282852080549092168417909155905184937fddf252ad1be2c89b69c2b068fc378daa952ba7f163c4a11628f55a4df523b3ef91a4505050565b604080516001600160a01b038416602482015260448082018490528251808303909101815260649091019091526020810180517bffffffffffffffffffffffffffffffffffffffffffffffffffffffff167fa9059cbb00000000000000000000000000000000000000000000000000000000179052610653908490612222565b610b028161230a565b600260075403611e045760405162461bcd60e51b815260206004820152601f60248201527f5265656e7472616e637947756172643a207265656e7472616e742063616c6c0060448201526064016105b2565b6002600755565b816001600160a01b0316836001600160a01b031603611e6c5760405162461bcd60e51b815260206004820152601960248201527f4552433732313a20617070726f766520746f2063616c6c65720000000000000060448201526064016105b2565b6001600160a01b03838116600081815260056020908152604080832094871680845294825291829020805460ff191686151590811790915591519182527f17307eab39ab6107e8899845ad3d59bd9653f200f220920489ca2b5937696c31910160405180910390a3505050565b611ee4848484611b30565b611ef08484848461234a565b6117e85760405162461bcd60e51b815260206004820152603260248201527f4552433732313a207472616e7366657220746f206e6f6e20455243373231526560448201527131b2b4bb32b91034b6b83632b6b2b73a32b960711b60648201526084016105b2565b6060611f6282611896565b60008281526006602052604081208054611f7b90612eff565b80601f0160208091040260200160405190810160405280929190818152602001828054611fa790612eff565b8015611ff45780601f10611fc957610100808354040283529160200191611ff4565b820191906000526020600020905b815481529060010190602001808311611fd757829003601f168201915b50505050509050600061201260408051602081019091526000815290565b90508051600003612024575092915050565b81511561205657808260405160200161203e929190613288565b60405160208183030381529060405292505050919050565b611b2884612496565b336001600160a01b038216036120b75760405162461bcd60e51b815260206004820152601760248201527f43616e6e6f74207472616e7366657220746f2073656c6600000000000000000060448201526064016105b2565b600980546001600160a01b0319166001600160a01b03838116918217909255600854604051919216907fed8889f560326eb138920d842192f0eb3dd22b4f139c87a2c57538e05bae127890600090a350565b60006001600160e01b031982167f80ac58cd00000000000000000000000000000000000000000000000000000000148061216c57506001600160e01b031982167f5b5e139f00000000000000000000000000000000000000000000000000000000145b8061046357507f01ffc9a7000000000000000000000000000000000000000000000000000000006001600160e01b0319831614610463565b6121ae838361250a565b6121bb600084848461234a565b6106535760405162461bcd60e51b815260206004820152603260248201527f4552433732313a207472616e7366657220746f206e6f6e20455243373231526560448201527131b2b4bb32b91034b6b83632b6b2b73a32b960711b60648201526084016105b2565b6000612277826040518060400160405280602081526020017f5361666545524332303a206c6f772d6c6576656c2063616c6c206661696c6564815250856001600160a01b03166126959092919063ffffffff16565b9050805160001480612298575080806020019051810190612298919061321d565b6106535760405162461bcd60e51b815260206004820152602a60248201527f5361666545524332303a204552433230206f7065726174696f6e20646964206e60448201527f6f7420737563636565640000000000000000000000000000000000000000000060648201526084016105b2565b612313816126a4565b6000818152600660205260409020805461232c90612eff565b159050610b02576000818152600660205260408120610b0291612a4b565b60006001600160a01b0384163b1561248b57604051630a85bd0160e11b81526001600160a01b0385169063150b7a029061238e9033908990889088906004016130f1565b6020604051808303816000875af19250505080156123c9575060408051601f3d908101601f191682019092526123c6918101906132b7565b60015b612471573d8080156123f7576040519150601f19603f3d011682016040523d82523d6000602084013e6123fc565b606091505b5080516000036124695760405162461bcd60e51b815260206004820152603260248201527f4552433732313a207472616e7366657220746f206e6f6e20455243373231526560448201527131b2b4bb32b91034b6b83632b6b2b73a32b960711b60648201526084016105b2565b805181602001fd5b6001600160e01b031916630a85bd0160e11b149050611b28565b506001949350505050565b60606124a182611896565b60006124b860408051602081019091526000815290565b905060008151116124d85760405180602001604052806000815250612503565b806124e284612739565b6040516020016124f3929190613288565b6040516020818303038152906040525b9392505050565b6001600160a01b0382166125605760405162461bcd60e51b815260206004820181905260248201527f4552433732313a206d696e7420746f20746865207a65726f206164647265737360448201526064016105b2565b6000818152600260205260409020546001600160a01b0316156125c55760405162461bcd60e51b815260206004820152601c60248201527f4552433732313a20746f6b656e20616c7265616479206d696e7465640000000060448201526064016105b2565b6000818152600260205260409020546001600160a01b03161561262a5760405162461bcd60e51b815260206004820152601c60248201527f4552433732313a20746f6b656e20616c7265616479206d696e7465640000000060448201526064016105b2565b6001600160a01b038216600081815260036020908152604080832080546001019055848352600290915280822080546001600160a01b0319168417905551839291907fddf252ad1be2c89b69c2b068fc378daa952ba7f163c4a11628f55a4df523b3ef908290a45050565b6060611b2884846000856127d9565b60006126af82610c84565b90506126ba82610c84565b600083815260046020908152604080832080546001600160a01b03199081169091556001600160a01b0385168085526003845282852080546000190190558785526002909352818420805490911690555192935084927fddf252ad1be2c89b69c2b068fc378daa952ba7f163c4a11628f55a4df523b3ef908390a45050565b60606000612746836128cb565b600101905060008167ffffffffffffffff81111561276657612766612ba6565b6040519080825280601f01601f191660200182016040528015612790576020820181803683370190505b5090508181016020015b600019017f3031323334353637383961626364656600000000000000000000000000000000600a86061a8153600a850494508461279a57509392505050565b6060824710156128515760405162461bcd60e51b815260206004820152602660248201527f416464726573733a20696e73756666696369656e742062616c616e636520666f60448201527f722063616c6c000000000000000000000000000000000000000000000000000060648201526084016105b2565b600080866001600160a01b0316858760405161286d91906132d4565b60006040518083038185875af1925050503d80600081146128aa576040519150601f19603f3d011682016040523d82523d6000602084013e6128af565b606091505b50915091506128c0878383876129ad565b979650505050505050565b6000807a184f03e93ff9f4daa797ed6e38ed64bf6a1f0100000000000000008310612914577a184f03e93ff9f4daa797ed6e38ed64bf6a1f010000000000000000830492506040015b6d04ee2d6d415b85acef81000000008310612940576d04ee2d6d415b85acef8100000000830492506020015b662386f26fc10000831061295e57662386f26fc10000830492506010015b6305f5e1008310612976576305f5e100830492506008015b612710831061298a57612710830492506004015b6064831061299c576064830492506002015b600a83106104635760010192915050565b60608315612a1c578251600003612a15576001600160a01b0385163b612a155760405162461bcd60e51b815260206004820152601d60248201527f416464726573733a2063616c6c20746f206e6f6e2d636f6e747261637400000060448201526064016105b2565b5081611b28565b611b288383815115612a315781518083602001fd5b8060405162461bcd60e51b81526004016105b29190612b1c565b508054612a5790612eff565b6000825580601f10612a67575050565b601f016020900490600052602060002090810190610b0291905b80821115612a955760008155600101612a81565b5090565b6001600160e01b031981168114610b0257600080fd5b600060208284031215612ac157600080fd5b813561250381612a99565b60005b83811015612ae7578181015183820152602001612acf565b50506000910152565b60008151808452612b08816020860160208601612acc565b601f01601f19169290920160200192915050565b6020815260006125036020830184612af0565b600060208284031215612b4157600080fd5b5035919050565b6001600160a01b0381168114610b0257600080fd5b60008060408385031215612b7057600080fd5b8235612b7b81612b48565b946020939093013593505050565b803567ffffffffffffffff81168114612ba157600080fd5b919050565b634e487b7160e01b600052604160045260246000fd5b600082601f830112612bcd57600080fd5b813567ffffffffffffffff80821115612be857612be8612ba6565b604051601f8301601f19908116603f01168101908282118183101715612c1057612c10612ba6565b81604052838152866020858801011115612c2957600080fd5b836020870160208301376000602085830101528094505050505092915050565b600080600060608486031215612c5e57600080fd5b612c6784612b89565b92506020840135612c7781612b48565b9150604084013567ffffffffffffffff811115612c9357600080fd5b612c9f86828701612bbc565b9150509250925092565b600080600060608486031215612cbe57600080fd5b8335612cc981612b48565b92506020840135612cd981612b48565b929592945050506040919091013590565b60008060408385031215612cfd57600080fd5b8235612d0881612b48565b91506020830135612d1881612b48565b809150509250929050565b600060208284031215612d3557600080fd5b61250382612b89565b600060208284031215612d5057600080fd5b813561250381612b48565b6001600160a01b0383168152604060208201526000611b286040830184612af0565b600080600080600060a08688031215612d9557600080fd5b8535612da081612b48565b94506020860135612db081612b48565b935060408601359250612dc560608701612b89565b9150608086013560028110612dd957600080fd5b809150509295509295909350565b600060208284031215612df957600080fd5b813567ffffffffffffffff811115612e1057600080fd5b820160a0818503121561250357600080fd5b8015158114610b0257600080fd5b60008060408385031215612e4357600080fd5b8235612e4e81612b48565b91506020830135612d1881612e22565b60008060008060808587031215612e7457600080fd5b8435612e7f81612b48565b93506020850135612e8f81612b48565b925060408501359150606085013567ffffffffffffffff811115612eb257600080fd5b612ebe87828801612bbc565b91505092959194509250565b600060208284031215612edc57600080fd5b813567ffffffffffffffff811115612ef357600080fd5b611b2884828501612bbc565b600181811c90821680612f1357607f821691505b602082108103612f3357634e487b7160e01b600052602260045260246000fd5b50919050565b601f82111561065357600081815260208120601f850160051c81016020861015612f605750805b601f850160051c820191505b81811015612f7f57828155600101612f6c565b505050505050565b815167ffffffffffffffff811115612fa157612fa1612ba6565b612fb581612faf8454612eff565b84612f39565b602080601f831160018114612fea5760008415612fd25750858301515b600019600386901b1c1916600185901b178555612f7f565b600085815260208120601f198616915b8281101561301957888601518255948401946001909101908401612ffa565b50858210156130375787850151600019600388901b60f8161c191681555b5050505050600190811b01905550565b67ffffffffffffffff841681526001600160a01b03831660208201526060604082015260006114596060830184612af0565b60006001820161309957634e487b7160e01b600052601160045260246000fd5b5060010190565b6000826130bd57634e487b7160e01b600052601260045260246000fd5b500690565b634e487b7160e01b600052603260045260246000fd5b6000602082840312156130ea57600080fd5b5051919050565b60006001600160a01b038087168352808616602084015250836040830152608060608301526131236080830184612af0565b9695505050505050565b634e487b7160e01b600052602160045260246000fd5b6000604067ffffffffffffffff8516835260208181850152845160a08386015261317060e0860182612af0565b905081860151603f198087840301606088015261318d8383612af0565b88860151888203830160808a01528051808352908601945060009350908501905b808410156131e057845180516001600160a01b03168352860151868301529385019360019390930192908601906131ae565b5060608901516001600160a01b031660a08901526080890151888203830160c08a0152955061320f8187612af0565b9a9950505050505050505050565b60006020828403121561322f57600080fd5b815161250381612e22565b6000808335601e1984360301811261325157600080fd5b83018035915067ffffffffffffffff82111561326c57600080fd5b60200191503681900382131561328157600080fd5b9250929050565b6000835161329a818460208801612acc565b8351908301906132ae818360208801612acc565b01949350505050565b6000602082840312156132c957600080fd5b815161250381612a99565b600082516132e6818460208701612acc565b919091019291505056fea264697066735822122054da7f2c20a39a044300e3cd12dbec7edf9c2bac1d1444fc7240b3972d64c99c64736f6c6343000814003368747470733a2f2f697066732e696f2f697066732f516d5731746f61705973374d3239727a4c5854454e6e33706276776538696f696b583150777a41437a6a666448503f66696c656e616d653d436861696e6c696e6b5f4f72632e706e6768747470733a2f2f697066732e696f2f697066732f516d5a47514139327269316a667a537536314a52614e5158596731624c754d37703859543833447a4641324b4c483f66696c656e616d653d436861696e6c696e6b5f4b6e696768742e706e6768747470733a2f2f697066732e696f2f697066732f516d504d775174467045644b72556a70514a666f54655a533161565365754a54364d6f66377556323941635570463f66696c656e616d653d436861696e6c696e6b5f57697463682e706e6768747470733a2f2f697066732e696f2f697066732f516d5467716e6846424d6b665439733850484b636458426e3166356247335135686d426152345536686f547662313f66696c656e616d653d436861696e6c696e6b5f456c662e706e67",
  "devdoc": {
    "events": {
      "Approval(address,address,uint256)": {
        "details": "Emitted when `owner` enables `approved` to manage the `tokenId` token."
      },
      "ApprovalForAll(address,address,bool)": {
        "details": "Emitted when `owner` enables or disables (`approved`) `operator` to manage all of its assets."
      },
      "BatchMetadataUpdate(uint256,uint256)": {
        "details": "This event emits when the metadata of a range of tokens is changed. So that the third-party platforms such as NFT market could timely update the images and related attributes of the NFTs."
      },
      "MetadataUpdate(uint256)": {
        "details": "This event emits when the metadata of a token is changed. So that the third-party platforms such as NFT market could timely update the images and related attributes of the NFT."
      },
      "Transfer(address,address,uint256)": {
        "details": "Emitted when `tokenId` token is transferred from `from` to `to`."
      }
    },
    "kind": "dev",
    "methods": {
      "approve(address,uint256)": {
        "details": "See {IERC721-approve}."
      },
      "balanceOf(address)": {
        "details": "See {IERC721-balanceOf}."
      },
      "burn(uint256)": {
        "details": "Burns `tokenId`. See {ERC721-_burn}. Requirements: - The caller must own `tokenId` or be an approved operator."
      },
      "ccipReceive((bytes32,uint64,bytes,bytes,(address,uint256)[]))": {
        "details": "Note ensure you check the msg.sender is the OffRampRouter",
        "params": {
          "message": "CCIP Message"
        }
      },
      "getApproved(uint256)": {
        "details": "See {IERC721-getApproved}."
      },
      "isApprovedForAll(address,address)": {
        "details": "See {IERC721-isApprovedForAll}."
      },
      "name()": {
        "details": "See {IERC721Metadata-name}."
      },
      "ownerOf(uint256)": {
        "details": "See {IERC721-ownerOf}."
      },
      "safeTransferFrom(address,address,uint256)": {
        "details": "See {IERC721-safeTransferFrom}."
      },
      "safeTransferFrom(address,address,uint256,bytes)": {
        "details": "See {IERC721-safeTransferFrom}."
      },
      "setApprovalForAll(address,bool)": {
        "details": "See {IERC721-setApprovalForAll}."
      },
      "symbol()": {
        "details": "See {IERC721Metadata-symbol}."
      },
      "transferFrom(address,address,uint256)": {
        "details": "See {IERC721-transferFrom}."
      }
    },
    "version": 1
  },
  "userdoc": {
    "kind": "user",
    "methods": {
      "acceptOwnership()": {
        "notice": "Allows an ownership transfer to be completed by the recipient."
      },
      "ccipReceive((bytes32,uint64,bytes,bytes,(address,uint256)[]))": {
        "notice": "Called by the Router to deliver a message. If this reverts, any token transfers also revert. The message will move to a FAILED state and become available for manual execution."
      },
      "owner()": {
        "notice": "Get the current owner"
      },
      "transferOwnership(address)": {
        "notice": "Allows an owner to begin transferring ownership to a new address."
      }
    },
    "notice": "THIS IS AN EXAMPLE CONTRACT THAT USES HARDCODED VALUES FOR CLARITY. THIS IS AN EXAMPLE CONTRACT THAT USES UN-AUDITED CODE. DO NOT USE THIS CODE IN PRODUCTION.",
    "version": 1
  },
  "storageLayout": {
    "storage": [
      {
        "astId": 1043,
        "contract": "contracts/XNFT.sol:XNFT",
        "label": "_name",
        "offset": 0,
        "slot": "0",
        "type": "t_string_storage"
      },
      {
        "astId": 1045,
        "contract": "contracts/XNFT.sol:XNFT",
        "label": "_symbol",
        "offset": 0,
        "slot": "1",
        "type": "t_string_storage"
      },
      {
        "astId": 1049,
        "contract": "contracts/XNFT.sol:XNFT",
        "label": "_owners",
        "offset": 0,
        "slot": "2",
        "type": "t_mapping(t_uint256,t_address)"
      },
      {
        "astId": 1053,
        "contract": "contracts/XNFT.sol:XNFT",
        "label": "_balances",
        "offset": 0,
        "slot": "3",
        "type": "t_mapping(t_address,t_uint256)"
      },
      {
        "astId": 1057,
        "contract": "contracts/XNFT.sol:XNFT",
        "label": "_tokenApprovals",
        "offset": 0,
        "slot": "4",
        "type": "t_mapping(t_uint256,t_address)"
      },
      {
        "astId": 1063,
        "contract": "contracts/XNFT.sol:XNFT",
        "label": "_operatorApprovals",
        "offset": 0,
        "slot": "5",
        "type": "t_mapping(t_address,t_mapping(t_address,t_bool))"
      },
      {
        "astId": 2124,
        "contract": "contracts/XNFT.sol:XNFT",
        "label": "_tokenURIs",
        "offset": 0,
        "slot": "6",
        "type": "t_mapping(t_uint256,t_string_storage)"
      },
      {
        "astId": 473,
        "contract": "contracts/XNFT.sol:XNFT",
        "label": "_status",
        "offset": 0,
        "slot": "7",
        "type": "t_uint256"
      },
      {
        "astId": 150,
        "contract": "contracts/XNFT.sol:XNFT",
        "label": "s_owner",
        "offset": 0,
        "slot": "8",
        "type": "t_address"
      },
      {
        "astId": 152,
        "contract": "contracts/XNFT.sol:XNFT",
        "label": "s_pendingOwner",
        "offset": 0,
        "slot": "9",
        "type": "t_address"
      },
      {
        "astId": 3981,
        "contract": "contracts/XNFT.sol:XNFT",
        "label": "characters",
        "offset": 0,
        "slot": "10",
        "type": "t_array(t_string_storage)dyn_storage"
      },
      {
        "astId": 3991,
        "contract": "contracts/XNFT.sol:XNFT",
        "label": "_nextTokenId",
        "offset": 0,
        "slot": "11",
        "type": "t_uint256"
      },
      {
        "astId": 3996,
        "contract": "contracts/XNFT.sol:XNFT",
        "label": "s_chains",
        "offset": 0,
        "slot": "12",
        "type": "t_mapping(t_uint64,t_struct(XNftDetails)3970_storage)"
      }
    ],
    "types": {
      "t_address": {
        "encoding": "inplace",
        "label": "address",
        "numberOfBytes": "20"
      },
      "t_array(t_string_storage)dyn_storage": {
        "base": "t_string_storage",
        "encoding": "dynamic_array",
        "label": "string[]",
        "numberOfBytes": "32"
      },
      "t_bool": {
        "encoding": "inplace",
        "label": "bool",
        "numberOfBytes": "1"
      },
      "t_bytes_storage": {
        "encoding": "bytes",
        "label": "bytes",
        "numberOfBytes": "32"
      },
      "t_mapping(t_address,t_bool)": {
        "encoding": "mapping",
        "key": "t_address",
        "label": "mapping(address => bool)",
        "numberOfBytes": "32",
        "value": "t_bool"
      },
      "t_mapping(t_address,t_mapping(t_address,t_bool))": {
        "encoding": "mapping",
        "key": "t_address",
        "label": "mapping(address => mapping(address => bool))",
        "numberOfBytes": "32",
        "value": "t_mapping(t_address,t_bool)"
      },
      "t_mapping(t_address,t_uint256)": {
        "encoding": "mapping",
        "key": "t_address",
        "label": "mapping(address => uint256)",
        "numberOfBytes": "32",
        "value": "t_uint256"
      },
      "t_mapping(t_uint256,t_address)": {
        "encoding": "mapping",
        "key": "t_uint256",
        "label": "mapping(uint256 => address)",
        "numberOfBytes": "32",
        "value": "t_address"
      },
      "t_mapping(t_uint256,t_string_storage)": {
        "encoding": "mapping",
        "key": "t_uint256",
        "label": "mapping(uint256 => string)",
        "numberOfBytes": "32",
        "value": "t_string_storage"
      },
      "t_mapping(t_uint64,t_struct(XNftDetails)3970_storage)": {
        "encoding": "mapping",
        "key": "t_uint64",
        "label": "mapping(uint64 => struct XNFT.XNftDetails)",
        "numberOfBytes": "32",
        "value": "t_struct(XNftDetails)3970_storage"
      },
      "t_string_storage": {
        "encoding": "bytes",
        "label": "string",
        "numberOfBytes": "32"
      },
      "t_struct(XNftDetails)3970_storage": {
        "encoding": "inplace",
        "label": "struct XNFT.XNftDetails",
        "members": [
          {
            "astId": 3967,
            "contract": "contracts/XNFT.sol:XNFT",
            "label": "xNftAddress",
            "offset": 0,
            "slot": "0",
            "type": "t_address"
          },
          {
            "astId": 3969,
            "contract": "contracts/XNFT.sol:XNFT",
            "label": "ccipExtraArgsBytes",
            "offset": 0,
            "slot": "1",
            "type": "t_bytes_storage"
          }
        ],
        "numberOfBytes": "64"
      },
      "t_uint256": {
        "encoding": "inplace",
        "label": "uint256",
        "numberOfBytes": "32"
      },
      "t_uint64": {
        "encoding": "inplace",
        "label": "uint64",
        "numberOfBytes": "8"
      }
    }
  }
}